S00C00006C6162342E73726563B5
S11300003CC1000058C1000056C1000054C10000AA
S113001052C1000050C100004EC100004CC100009C
S11300204AC1000048C1000046C1000044C10000AC
S113003042C100000C948F083EC100003CC1000086
S11300403AC1000038C1000036C1000034C10000CC
S113005032C1000030C100002EC100002CC10000DC
S11300602AC1000028C1000026C1000024C10000EC
S113007022C1000020C100001EC100001CC10000FC
S11300801AC1000018C1000016C100004004470452
S113009050045E0467047004830400000000000040
S11300A0005F00000007000700147F147F14242A57
S11300B07F2A12231308646236495522500005032F
S11300C00000001C2241000041221C0014083E08CC
S11300D01408083E08080050300000080808080802
S11300E0006060000020100804023E5149453E00B3
S11300F0427F400042615149462141454B31181429
S1130100127F1027454545393C4A49493001710958
S113011005033649494936064949291E0036360041
S1130120000056360000081422410014141414145C
S113013000412214080201510906324979413E7EE8
S11301401111117E7F494949363E414141227F4187
S113015041221C7F494949417F090909013E41491E
S1130160497A7F0808087F00417F41002040413FD1
S1130170017F081422417F404040407F020C027FEF
S11301807F0408107F3E4141413E7F090909063E34
S11301904151215E7F0919294646494949310101E6
S11301A07F01013F4040403F1F2040201F3F403817
S11301B0403F6314081463070870080761514945F8
S11301C043007F41410002040810200041417F00A8
S11301D004020102044040404040000102040020A7
S11301E0545454787F484444383844444420384470
S11301F044487F3854545418087E0901020C525262
S1130200523E7F0804047800447D40002040443D71
S1130210007F1028440000417F40007C04180478CB
S11302207C0804047838444444387C1414140808C2
S11302301414187C7C080404084854545420043FC3
S11302404440203C4040207C1C2040201C3C40304A
S1130250403C44281028440C5050503C4464544CB6
S113026044000836410000007F00000041360800C9
S11302701008081008000000000011241FBECFEF72
S1130280D0E4DEBFCDBF11E0A0E0B1E0ECE3F8E1E3
S113029000E00BBF02C007900D92AC36B107D9F74E
S11302A029E0ACE6B1E001C01D92AD3AB207E1F736
S11302B0C7D50C941C0CA4CECF93DF93EC010E9401
S11302C0E20920916C0130916D01C9018C0F9D1FD1
S11302D08C3D45E0940758F42817390758F4E90190
S11302E0C259DE4F90936D0180936C0105C0C0E04C
S11302F0D0E002C0C0E0D0E00E94AC0ACE01DF91A1
S1130300CF9108950895FC010396928381832FEF82
S11303103FEF34832383968385839087878310827A
S11303200895FC01118610860895CF93DF93FC0194
S1130330DB0121813281E9018A819B8113969C939F
S11303408E9312978181928115969C938E93149724
S11303508A819B81EC017D836C83E9017B836A83C1
S1130360728361831996FC93EE93189780818F5F53
S11303708083DF91CF910895CF93DF93EB01488180
S113038059814F3F2FEF520731F4DC011796ED915D
S1130390FC91189717C0FC013396DC0115962D913A
S11303A03C911697D9012D913C914217530750F077
S11303B00280F381E02DA281B3812D913C914217FB
S11303C05307B0F7A281B381BB83AA831596DC934C
S11303D0CE931497FD83EC83D383C2839987888754
S11303E0FC0120812F5F2083DF91CF910895FC01D0
S11303F0A281B3818481958115969C938E931497E1
S1130400A481B5818281938113969C938E931297D4
S1130410A085B18511968D919C911297E817F907E3
S113042031F48481958112969C938E931197118651
S113043010868C9181508C9308952898662311F02E
S11304402A9A15C02A9813C0AC01022E02C05595F1
S113045047950A94E2F740FF02C02B9A01C02B98FB
S11304602C9A2C982150310978F7289A089527E07E
S113047030E090E0E9CF60E0E0CF08958FEE88B9F6
S11304800000309B29C0319B29C0329B29C0339B7B
S113049029C08FED88B90000309B26C0319B26C04F
S11304A0329B26C0339B26C08FEB88B90000309B5B
S11304B023C0319B23C0329B23C0339B23C08FE7CF
S11304C088B90000309B20C0319B20C0329B20C0E3
S11304D0339B20C080E0089581E3089584E3089568
S11304E087E308958AE2089582E3089585E30895F1
S11304F088E3089580E3089583E3089586E30895E7
S113050089E3089583E2089581E4089582E40895D7
S113051083E4089584E40895CF93DF93209A219A85
S1130520229A239A249A299A289A83EC99E001978B
S1130530F1F700C0000029988BE594E40197F1F7E6
S113054000C00000299A289881E295DF83E193DFB7
S113055086E091DF82EC8FDF80E28DDF89E08BDF44
S113056080E889DF80E487DFC8EFD1E061E080E0E4
S113057064DF2197D9F788E07EDF8CE07CDFDF91B0
S1130580CF91089580E877DF80E475DF1092480901
S113059010924909E0E5F7E088E499E01192E81740
S11305A0F907E1F70895262F26952695269590E0DC
S11305B034E5239F800D911D1124442379F0FC011F
S11305C0E05BF84F677081E090E002C0880F991FEC
S11305D06A95E2F79081892B80830895FC01E05BA2
S11305E0F84F677081E090E002C0880F991F6A9508
S11305F0E2F7809590818923808308955F926F92BA
S11306007F928F929F92AF92BF92CF92DF92EF929E
S1130610FF920F931F93CF93DF93562E262F30E034
S11306204901880C991C880C991C820E931E18147D
S113063019040CF05BC08901000F111F000F111F7A
S1130640000F111F021B130B612CA82EB12CC50126
S113065080975C01AA0CBB1CAA0CBB1CA80EB91E7B
S11306600F2EF9E4CF2EF9E0DF2EF02D0F2EF8E453
S1130670EF2EF9E0FF2EF02D2BC0FE01249130E087
S1130680872D652D0E94F10B02C0359527958A951B
S1130690E2F720FF09C0F6016081670DF701808150
S11306A041E0860D80DF08C0F6016081670DF70127
S11306B0808140E0860D77DF7394872D90E080176A
S11306C09107DCF26394862D90E08815990574F403
S11306D010161106BCF7862D652D0E94F10BE5015D
S11306E0C80FD11DC656DF4F712CC7CF8091480962
S11306F091E0980F852D880F880F850D890F84351B
S113070018F4809348090EC010924809E9E4F9E00E
S1130710808191E0980F852D880F880F880F8519A7
S1130720890F808380914909803320F01092480911
S113073010924909DF91CF911F910F91FF90EF9093
S1130740DF90CF90BF90AF909F908F907F906F90ED
S11307505F9008951F93CF93DF93EC0188818823E2
S113076039F0162F2196612F49DF89918111FBCF32
S1130770DF91CF911F9108950F931F93CF93DF9330
S113078080E879DE80E477DEC0E5D7E008E419E0AC
S113079061E0899152DEC017D107D1F7DF91CF9183
S11307A01F910F910895813081F0E1ECF0E0808198
S11307B088618083E2ECF0E080818660808385E05C
S11307C08093C4001092C5000895E9ECF0E08081A4
S11307D088618083EAECF0E080818660808385E034
S11307E08093CC001092CD000895813029F480913B
S11307F0C800882374F008958091C00088238CF485
S1130800A6ECB0E0E0ECF0E08C9180818823E4F386
S11308100895AEECB0E0E8ECF0E08C9180818823A0
S1130820E4F30895813041F0E0ECF0E08081882326
S1130830ECF78091C6000895E8ECF0E0808188230D
S1130840ECF78091CE000895CF92DF92EF92FF9261
S11308500F931F93CF93DF9389B18095382F38700E
S113086089B18095282F2470E091A4098E2F90E0FF
S11308708730910508F057C0FC01EA5BFF4FBDC704
S1130880243009F093C281E08093A40993C280913B
S11308904C07813009F08EC282E08093A409A1C282
S11308A080914E07893C30F083E08093A409109234
S11308B04E0791C28F5F80934E0793C280914B077E
S11308C0813009F088C284E08093A40979C28091C0
S11308D04A07823009F074C285E08093A40971C18B
S11308E080914E07893C30F086E08093A4091092F1
S11308F04E076CC28F5F80934E0780914A0788230E
S113090009F477C15EC180914E07893C40F0109292
S1130910A40910924E0710924A075C9807C08F5F93
S113092080934E0753C21092A40940C22BDE08E400
S113093019E083E2F8018083C9E4D9E08AE088837E
S113094062E08AE091E006DF8FE0F80180838EE1C7
S1130950888362E08DE091E0FDDE82E3F80180832C
S113096088E2888309DF3DC2C1E0C0934D0780E07F
S113097059DF8093A60980E038DFC0934C070DC08F
S113098010924D077BDD8093A609882321F081E036
S113099080934C0702C010924C07F4DD08E419E080
S11309A00F2EFAE0FF2EF02DF801F082C9E4D9E011
S11309B0188261E084E191E0CDDEF801F0820F2E2F
S11309C0FEE1DF2EF02DD88261E08EE191E0C2DEFF
S11309D00F2EF1E4EF2EF02DF801E082D88261E0D1
S11309E08091A6090BDEF801F0820F2EF8E2FF2EAB
S11309F0F02DF88261E08AE291E0ACDEF801E08259
S1130A00F8828091A60961E0805DF8DDB5DEE9C178
S1130A10C1E0C0934D0780E005DF8093AB0980E01F
S1130A20E4DEC0934B0711C080914D07813011F073
S1130A3010924D0723DD8093AB09882321F081E0D8
S1130A4080934B0702C010924B079CDD08E419E029
S1130A500F2EFAE0FF2EF02DF801F082C9E4D9E060
S1130A60188261E084E191E075DEF801F0820F2ED6
S1130A70FEE1EF2EF02DE88261E08EE191E06ADE86
S1130A800F2EF1E4CF2EF02DF801C082E88261E050
S1130A908091A609B3DD0F2EF6E4DF2EF02DF801C8
S1130AA0D082E88261E08091AB09A8DDF801F08290
S1130AB00F2EF8E2FF2EF02DF88261E08AE291E039
S1130AC049DEF801C082F8828091A60961E0805D68
S1130AD095DDF801D082F8828091AB0961E0805DF8
S1130AE08DDD4ADE7EC18091AB09823321F0809195
S1130AF04D07882321F082E080934A0755C042DDE8
S1130B0008E419E0F8011082C9E4D9E00F2EFAE0F4
S1130B10FF2EF02DF88261E085E391E01BDEF80101
S1130B20108284E1888361E084E491E013DEF801BB
S1130B30F0820F2EFEE1EF2EF02DE88261E08EE1CF
S1130B4091E008DE0F2EF1E4CF2EF02DF801C082E3
S1130B50E88261E08091A60951DD0F2EF6E4DF2ED4
S1130B60F02DF801D082E88261E08091AB0946DD86
S1130B70F801F0820F2EF8E2FF2EF02DF88261E0EA
S1130B808AE291E0E7DDF801C082F8828091A6094B
S1130B9061E0805D33DDF801D082F8828091AB0999
S1130BA061E0805D2BDDE8DD80E094E0A0E0B0E072
S1130BB08093A7099093A809A093A909B093AA09BF
S1130BC010C180914F07873020F48F5F80934F07C7
S1130BD002C010924F078091A7099091A809A09193
S1130BE0A909B091AA090197A105B10511F41092C0
S1130BF04A07383059F4E0914F07F0E0E050FF4FD6
S1130C0080818295807F82B95C9A08C0E0914F0709
S1130C10F0E0E050FF4F808182B95C98B3DC08E4D7
S1130C2019E00F2EFAE0FF2EF02DF801F082C9E44E
S1130C30D9E084E1888361E082E591E08BDDF8010D
S1130C40F0820F2EFEE1EF2EF02DE88261E08EE1BE
S1130C5091E080DD0F2EF1E4CF2EF02DF801C0825B
S1130C60E88261E08091A609C9DC0F2EF6E4DF2E4C
S1130C70F02DF801D082E88261E08091AB09BEDCFE
S1130C80F801F0820F2EF8E2FF2EF02DF88261E0D9
S1130C908AE291E05FDDF801C082F88261E0809130
S1130CA0A609ACDCF801D082F88261E08091AB093E
S1130CB0A5DC62DD96C080914F07882321F0815026
S1130CC080934F0703C087E080934F078091A70963
S1130CD09091A809A091A909B091AA090197A10529
S1130CE0B10511F410924A07383059F4E0914F07D6
S1130CF0F0E0E050FF4F80818295807F82B95C9A5A
S1130D0008C0E0914F07F0E0E050FF4F808182B9C6
S1130D105C9838DC08E419E00F2EFAE0FF2EF02D81
S1130D20F801F082C9E4D9E084E1888361E084E5D4
S1130D3091E010DDF801F0820F2EFEE1EF2EF02D90
S1130D40E88261E08EE191E005DD0F2EF1E4CF2E23
S1130D50F02DF801C082E88261E08091A6094EDCA2
S1130D600F2EF6E4DF2EF02DF801D082E88261E048
S1130D708091AB0943DCF801F0820F2EF8E2FF2EDC
S1130D80F02DF88261E08AE291E0E4DCF801C082AF
S1130D90F88261E08091A60931DCF801D082F88202
S1130DA061E08091AB092ADCE7DC1BC05C9821116F
S1130DB0D9CDBCCD8091C00088230CF4D5CDE0CD35
S1130DC08091A609813309F092CE8DCE80914A0795
S1130DD0811171CF89CF8091C00088230CF024CE7B
S1130DE017CEDF91CF911F910F91FF90EF90DF907D
S1130DF0CF9008951092A40927DD83E090E030D4C9
S1130E00FBCFAF92BF92CF92DF92EF92FF920F93FC
S1130E10A12CB12CC12CD12CE12CF12C082F20E0D9
S1130E2030E045E550E06DE571E08AEF96E0AED143
S1130E300F91FF90EF90DF90CF90BF90AF90089507
S1130E408FEF81B912B884B915B880EF87B98FE0F4
S1130E5088B982EF8AB98DE08BB95EDB80E20BDB67
S1130E6080E0A1DC81E0CDDF84D280E090E00895D1
S1130E7031E1FC013083319722E220833197A3E3EF
S1130E80A0833197608331977083319710823197B3
S1130E9060E8608331971082319762E06083319714
S1130EA063E06083319764E06083319765E0608339
S1130EB0319766E06083319767E06083319768E03B
S1130EC06083319769E06083319760E16083319793
S1130ED03083319732E13083319733E13083319776
S1130EE034E13083319735E13083319736E1308313
S1130EF0319737E13083319738E13083319739E1E5
S1130F003083319730E23083319731E23083319747
S1130F102083319723E22083319740833197508394
S1130F20319726E22083319727E22083319728E204
S1130F302083319729E22083319720E3208331975E
S1130F4021E3208386970895109289008CE780938B
S1130F5088008BE080938100EFE6F0E0808182607E
S1130F608083A091A209B091A309CD91CDBFDD9159
S1130F70DEBFFF91EF91DF91CF91BF91AF919F9130
S1130F808F917F916F915F914F913F912F911F911D
S1130F900F91FF90EF90DF90CF90BF90AF909F9014
S1130FA08F907F906F905F904F903F902F901F9005
S1130FB00F900FBE0F90089581E008950F920FB621
S1130FC0F8940F921F9211242F923F924F925F92A6
S1130FD06F927F928F929F92AF92BF92CF92DF9245
S1130FE0EF92FF920F931F932F933F934F935F932F
S1130FF06F937F938F939F93AF93BF93CF93DF931D
S1131000EF93FF93A091A209B091A3090DB60D929D
S11310100EB60D927AD3A091A209B091A309CD91F5
S1131020CDBFDD91DEBFFF91EF91DF91CF91BF91F5
S1131030AF919F918F917F916F915F914F913F916C
S11310402F911F910F91FF90EF90DF90CF90BF9061
S1131050AF909F908F907F906F905F904F903F9054
S11310602F901F900F900FBE0F9008950F920FB600
S1131070F8940F921F9211242F923F924F925F92F5
S11310806F927F928F929F92AF92BF92CF92DF9294
S1131090EF92FF920F931F932F933F934F935F937E
S11310A06F937F938F939F93AF93BF93CF93DF936C
S11310B0EF93FF93A091A209B091A3090DB60D92ED
S11310C00EB60D9285D121D3A091A209B091A309A6
S11310D0CD91CDBFDD91DEBFFF91EF91DF91CF9137
S11310E0BF91AF919F918F917F916F915F914F913C
S11310F03F912F911F910F91FF90EF90DF90CF9030
S1131100BF90AF909F908F907F906F905F904F9023
S11311103F902F901F900F900FBE0F900895A6DF61
S11311201895CF93DF93EC01E091A209F091A30904
S1131130938382838091520990915309C817D907E8
S113114060F46091A2097091A3098091680990915B
S113115069096E5F7F4F10D916C06091A209709122
S1131160A30980916A0990916B096E5F7F4F04D93E
S11311708091080190910901C817D90720F4D093F0
S11311800901C0930801DF91CF9108954F925F92B6
S11311906F927F928F929F92AF92BF92CF92DF9283
S11311A0EF92FF920F931F93CF93DF935C014B0158
S11311B03A01290181E290E07FD8EC01892B09F4FE
S11311C0C6C0C114D10409F0BEC0C30175D8988F3C
S11311D08F8B009719F4CE0195D8B9C0A30165EAA5
S11311E070E014D39301215031098F89988D3C010B
S11311F0620E731E48E050E0B401CE0149960DD34F
S113120018A2102F043008F013E01E8B6E0182E048
S1131210C80ED11CC60185D8CE010C9682D8D987B8
S1131220C88784E090E0811B91099D878C87DB8BC4
S1131230CA8BA201B501C3011BDE99838883E11423
S1131240F10419F0F701D183C0830FB6F8940F921B
S1131250809154098F5F809354098091A2099091E1
S1131260A309892B69F5D093A309C093A20980919E
S113127054098130A1F58EE799E045D887E899E0D3
S113128042D880E999E03FD889E999E03CD885E7DC
S113129099E039D88CE699E036D88FE599E033D8CF
S11312A086E599E030D885E799E090936B098093BF
S11312B06A098CE699E090936909809368090FC0E4
S11312C080914F0981110BC0E091A209F091A3090B
S11312D08689081720F0D093A309C093A2098E89A8
S11312E090915109981710F48093510990914A09EB
S11312F09F5F90934A0990915009981710F4809336
S1131300500990E09C01220F331F220F331F220F3C
S1131310331F820F931FB6018258964F06D80F9041
S11313200FBE80914F09882351F0E091A209F091FA
S1131330A3098689801728F441DE81E009C081E091
S113134007C081E005C0D88ECF8AC60147CF8FEF92
S1131350DF91CF911F910F91FF90EF90DF90CF908D
S1131360BF90AF909F908F907F906F905F904F90C1
S11313700895AF92BF92CF92DF92EF92FF920F93B4
S1131380A12CB12CC12CD12CE12CF12C00E020E0BB
S113139030E045E550E067E671E08CE49BE0F6DE82
S11313A0813041F4F89480934F09109253091092BC
S11313B05209CADD0F91FF90EF90DF90CF90BF905C
S11313C0AF90089580914E098F5F80934E090895E0
S11313D00F931F93CF93DF9380914E098111B2C075
S11313E080915209909153090196909353098093E7
S11313F052098091520990915309892B99F5809152
S11314006A0990916B0920916809309169093093B8
S11314106B0920936A099093690980936809809104
S11314204B098F5F80934B09E0916A09F0916B0936
S11314308081811107C08FEF9FEF90930901809302
S1131440080110C0E0916A09F0916B090580F681EA
S1131450E02D0680F781E02D82819381909309012C
S11314608093080120915209309153098091080119
S1131470909109012817390708F469C0E0916A09B5
S1131480F0916B098081882399F0E0916A09F091C9
S11314906B090580F681E02DC681D7818A819B8105
S11314A0209152093091530928173907F8F419C0CB
S11314B08FEF9FEF909309018093080148C0E0915A
S11314C06A09F0916B090580F681E02DC681D78108
S11314D08A819B8120915209309153092817390739
S11314E028F4909309018093080131C08E010E5FA6
S11314F01F4FC8010E94F7018C899D89892B21F017
S1131500CE010C960E94F7018E899091500998178C
S113151010F48093500990E09C01220F331F220F96
S1131520331F220F331F820F931FB8018258964F27
S11315300E949501E0916A09F0916B098081811103
S1131540BECFB6CF80914D098F5F80934D09DF9157
S1131550CF911F910F910895CF92DF92EF92FF9256
S11315600F931F93CF93DF930FB6F8940F9280914C
S11315704E09815080934E0980914E09811162C0B9
S113158080915409811132C060C0D7011596ED9144
S1131590FC911697C681D781CE010C960E94F70163
S11315A08E010E5F1F4FC8010E94F7018E89909132
S11315B05009981710F48093500990E09C01220F71
S11315C0331F220F331F220F331F820F931FB801C3
S11315D08258964F0E949501E091A209F091A309C7
S11315E09E898689981758F0DC2C09C0D12C0F2EBF
S11315F0FFE5EF2EF9E0FF2EF02DCC24C394F70184
S113160080818111C2CF80914D09882379F0809126
S11316104D09882391F0DCDE80914D09815080933F
S11316204D0980914D098111F6CF07C0F1E0DF1615
S113163021F080914C09813039F410924C09BEDCC0
S113164081E003C080E001C080E00F900FBEDF9115
S1131650CF911F910F91FF90EF90DF90CF9008955D
S1131660CF93DF93EC01892B99F0ACDE8091520982
S113167090915309C80FD91F8091A2099091A30991
S113168002960E94F701CE014CDD66DF811101C094
S113169095DCDF91CF9108950F2EF6E5EF2EF9E05A
S11316A0FF2EF02DCEE7D9E080915509882341F132
S11316B089DED7011C9150DF112311F10FB6F89484
S11316C00F92D7011596ED91FC911697068117811B
S11316D0C80102960E94F7018091540981508093B9
S11316E05409809155098150809355090F900FBE7C
S11316F0F8018789908D0E948201C8010E948201AD
S11317008881823088F25ADCCFCF80914E098111D2
S113171013C08091500990E0FC01EE0FFF1FEE0F03
S1131720FF1FEE0FFF1F8E0F9F1FFC01E258F64FA5
S11317308081882329F01BC081E080934C0908959F
S1131740809150098150809350098091500990E014
S1131750FC01EE0FFF1FEE0FFF1FEE0FFF1F8E0F9A
S11317609F1FFC01E258F64F8081882349F3809142
S1131770500990E09C01220F331F220F331F220FC8
S1131780331F280F391FD901A258B64F1196ED9176
S1131790FC9112970280F381E02D1296FC93EE9354
S11317A011972F57364FE217F30729F4228133811B
S11317B0FD0132832183FC01EE0FFF1FEE0FFF1F9B
S11317C0EE0FFF1F8E0F9F1FFC01E258F64F0180A2
S11317D0F281E02D868197819093A3098093A209D9
S11317E00895991B79E004C0991F961708F0961B79
S11317F0881F7A95C9F780950895EE0FFF1F00247E
S1131800001C0BBE0790F691E02D0994DC0101C089
S11318106D9341505040E0F70895FB01DC014150C5
S1131820504048F001900D920020C9F701C01D926C
S10F183041505040E0F70895F894FFCFB9
S113183C01030206040C0809FFFF4E6F004D6F7480
S113184C696F6E0050415353434F44453F0043610D
S113185C6C20456E7472793A2000425420456E74A3
S113186C72793A200057524F4E47205041535357E8
S113187C4F5244005245535441525420424F41520A
S113188C4400554E4C4F434B494E4721004D6F7409
S10F189C6F725461736B0049444C4500AA
S9030000FC
