S00C00006C6162342E73726563B5
S113000042C100005EC100005CC100005AC1000092
S113001058C1000056C1000054C1000052C1000084
S113002050C100004EC100004CC100004AC1000094
S113003048C100000C94720944C1000042C1000090
S113004040C100003EC100003CC100003AC10000B4
S113005038C1000036C1000034C1000032C10000C4
S113006030C100002EC100002CC100002AC10000D4
S113007028C1000026C1000024C1000022C10000E4
S113008020C100001EC100001CC1000045044C0436
S113009061046F0486049404A204B004C704D50464
S11300A0EC040305F504000000000000005F0000FC
S11300B00007000700147F147F14242A7F2A1223C8
S11300C01308646236495522500005030000001CE1
S11300D02241000041221C0014083E081408083E76
S11300E00808005030000008080808080060600094
S11300F00020100804023E5149453E00427F400062
S113010042615149462141454B311814127F102751
S1130110454545393C4A4949300171090503364989
S1130120494936064949291E00363600000056362C
S11301300000081422410014141414140041221461
S1130140080201510906324979413E7E1111117E9E
S11301507F494949363E414141227F4141221C7F2A
S1130160494949417F090909013E4149497A7F08C2
S113017008087F00417F41002040413F017F08146F
S113018022417F404040407F020C027F7F040810E0
S11301907F3E4141413E7F090909063E4151215EAE
S11301A07F09192946464949493101017F01013F27
S11301B04040403F1F2040201F3F4038403F6314D1
S11301C008146307087008076151494543007F41DB
S11301D0410002040810200041417F000402010292
S11301E0044040404040000102040020545454782C
S11301F07F484444383844444420384444487F3891
S113020054545418087E0901020C5252523E7F087D
S113021004047800447D40002040443D007F1028C1
S1130220440000417F40007C041804787C080404E6
S11302307838444444387C14141408081414187C82
S11302407C080404084854545420043F4440203C8F
S11302504040207C1C2040201C3C4030403C442832
S11302601028440C5050503C4464544C440008360C
S1130270410000007F00000041360800100808100B
S113028008000000000011241FBECFEFD0E4DEBF41
S1130290CDBF11E0A0E0B1E0EEE1FAE100E00BBF78
S11302A002C007900D92AE3AB107D9F729E0AEEA41
S11302B0B1E001C01D92A23FB207E1F7A4D60C94AD
S11302C00D0D9ECECF93DF93EC010E94D30A2091B3
S11302D0AE013091AF01C9018C0F9D1F8C3D45E0EB
S11302E0940758F42817390758F4E901C055DE4F2C
S11302F09093AF018093AE0105C0C0E0D0E002C08E
S1130300C0E0D0E00E949D0BCE01DF91CF91089513
S11303100895FC010396928381832FEF3FEF34838A
S11303202383968385839087878310820895FC01B5
S1130330118610860895CF93DF93FC01DB012181A0
S11303403281E9018A819B8113969C938E93129743
S11303508181928115969C938E9314978A819B81B7
S1130360EC017D836C83E9017B836A8372836183FF
S11303701996FC93EE93189780818F5F8083DF91A9
S1130380CF910895CF93DF93EB01488159814F3F7B
S11303902FEF520731F4DC011796ED91FC91189779
S11303A017C0FC013396DC0115962D913C911697EC
S11303B0D9012D913C914217530750F00280F381EB
S11303C0E02DA281B3812D913C9142175307B0F7E0
S11303D0A281B381BB83AA831596DC93CE93149731
S11303E0FD83EC83D383C28399878887FC012081B2
S11303F02F5F2083DF91CF910895FC01A281B38107
S11304008481958115969C938E931497A481B581CC
S11304108281938113969C938E931297A085B185C4
S113042011968D919C911297E817F90731F4848104
S1130430958112969C938E931197118610868C91B8
S113044081508C9308952898662311F02A9A15C038
S11304502A9813C0AC01022E02C0559547950A9400
S1130460E2F740FF02C02B9A01C02B982C9A2C98DB
S11304702150310978F7289A089527E030E090E078
S1130480E9CF60E0E0CF08958FEE88B90000309B9B
S113049029C0319B29C0329B29C0339B29C08FEDD1
S11304A088B90000309B26C0319B26C0329B26C0F1
S11304B0339B26C08FEB88B90000309B23C0319B4F
S11304C023C0329B23C0339B23C08FE788B900002D
S11304D0309B20C0319B20C0329B20C0339B20C066
S11304E080E0089581E3089584E3089587E30895FF
S11304F08AE2089582E3089585E3089588E30895E0
S113050080E3089583E3089586E3089589E30895D5
S113051083E2089581E4089582E4089583E40895CC
S113052084E40895CF93DF93209A219A229A239A00
S1130530249A299A289A83EC99E00197F1F700C04C
S1130540000029988BE594E40197F1F700C00000BE
S1130550299A289881E295DF83E193DF86E091DF91
S113056082EC8FDF80E28DDF89E08BDF80E889DF3A
S113057080E487DFC8EFD1E061E080E064DF2197A9
S1130580D9F788E07EDF8CE07CDFDF91CF9108959E
S113059080E877DF80E475DF10928D0910928E0970
S11305A0E5E9F7E08DE899E01192E817F907E1F73A
S11305B00895262F26952695269590E034E5239FC9
S11305C0800D911D1124442379F0FC01EB56F84F62
S11305D0677081E090E002C0880F991F6A95E2F786
S11305E09081892B80830895FC01EB56F84F677046
S11305F081E090E002C0880F991F6A95E2F7809528
S113060090818923808308955F926F927F928F9265
S11306109F92AF92BF92CF92DF92EF92FF920F938D
S11306201F93CF93DF93562E262F30E04901880C79
S1130630991C880C991C820E931E181419040CF032
S11306405BC08901000F111F000F111F000F111F44
S1130650021B130B612CA82EB12CC50180975C01E1
S1130660AA0CBB1CAA0CBB1CA80EB91E0F2EFEE8BC
S1130670CF2EF9E0DF2EF02D0F2EFDE8EF2EF9E05E
S1130680FF2EF02D2BC0FE01249130E0872D652D27
S11306900E94E20C02C0359527958A95E2F720FF67
S11306A009C0F6016081670DF701808141E0860D84
S11306B080DF08C0F6016081670DF701808140E0AA
S11306C0860D77DF7394872D90E080179107DCF215
S11306D06394862D90E08815990574F4101611061C
S11306E0BCF7862D652D0E94E20CE501C80FD11DD3
S11306F0CA55DF4F712CC7CF80918D0991E0980FB7
S1130700852D880F880F850D890F843518F4809303
S11307108D090EC010928D09EEE8F9E0808191E018
S1130720980F852D880F880F880F8519890F80836E
S113073080918E09803320F010928D0910928E09D9
S1130740DF91CF911F910F91FF90EF90DF90CF90A9
S1130750BF90AF909F908F907F906F905F9008951F
S11307601F93CF93DF93EC018881882339F0162FF0
S11307702196612F49DF89918111FBCFDF91CF91C0
S11307801F9108950F931F93CF93DF9380E879DE31
S113079080E477DEC5E9D7E00DE819E061E08991EE
S11307A052DEC017D107D1F7DF91CF911F910F917E
S11307B00895813081F0E1ECF0E0808188618083EC
S11307C0E2ECF0E080818660808385E08093C40061
S11307D01092C5000895E9ECF0E08081886180837F
S11307E0EAECF0E080818660808385E08093CC0031
S11307F01092CD000895813029F48091C800882397
S113080074F008958091C00088238CF4A6ECB0E0C5
S1130810E0ECF0E08C9180818823E4F30895AEEC61
S1130820B0E0E8ECF0E08C9180818823E4F3089553
S1130830813041F0E0ECF0E080818823ECF7809196
S1130840C6000895E8ECF0E080818823ECF78091FD
S1130850CE000895EF92FF920F931F93CF93DF93EF
S113086089B18095382F387089B18095282F2470EC
S1130870E091E9098E2F90E08D30910508F0D3C006
S1130880FC01EA5BFF4F0C94EE0C243009F03FC3EB
S113089081E08093E9093FC380919107813021F47D
S11308A082E08093E90982C3823021F485E0809359
S11308B0E90970C3833009F02EC384E08093E90909
S11308C03EC380919307853630F083E08093E90935
S11308D010929307F4C08F5F8093930767C380914E
S11308E09007813041F4809192078111E8C086E03D
S11308F08093E9095BC38111E2C080919207813042
S113090009F0DDC08CE08093E90913C3809193075B
S1130910853630F081E08093E90910929307FBC299
S11309208F5F809393070BC380919307853630F0D4
S113093081E08093E90910929307EDC28F5F809361
S1130940930728C380919307893C30F087E0809314
S1130950E90910929307F1C08F5F8093930726C330
S113096080918F07813041F4809192078111E5C015
S113097088E08093E9091AC38111DFC0809192074E
S1130980813009F0DAC08CE08093E909D2C2809109
S11309909307893C30F089E08093E909109293072A
S11309A018C18F5F8093930701C380918E078130B4
S11309B041F48091920781110CC18AE08093E90986
S11309C0B1C2811106C180919207813009F001C141
S11309D08CE08093E909ADC280918D07823009F0E3
S11309E0A1C28CE08093E909A1C180919307893C5D
S11309F030F08BE08093E9091092930783C28F5FF4
S1130A008093930796C280919307893C40F010929B
S1130A10E9091092930710928D075C9807C08F5FC5
S1130A20809393076FC21092E90971C2B1DD0DE89A
S1130A3019E083E2F8018083CEE8D9E0188262E00D
S1130A408DE091E08DDE8FE0F801808384E188837E
S1130A5062E080E191E084DE95DEA8C281E08093CB
S1130A6091070EC0823421F482E08093910708C07C
S1130A70833421F483E08093910702C0109291079C
S1130A8087DD0DE819E0F8011082CEE8D9E08AE0AC
S1130A90888361E087E191E063DEF801108284E1FC
S1130AA0888361E084E291E05BDEF80110828EE1EC
S1130AB0888361E082E391E053DE64DE77C2809153
S1130AC0C000882354F481E08093920780E0B0DE74
S1130AD08093EA0980E08FDE0DC010929207D4DC87
S1130AE08093EA09882321F081E08093900702C073
S1130AF0109290074DDD0F2EFDE8EF2EF9E0FF2E4A
S1130B00F02D1EE1F7011083CEE8D9E0188261E0F0
S1130B108BE491E025DE8AE0F7018083188361E0AD
S1130B208FE391E01DDE82E3F7018083188361E0A7
S1130B308091EA0969DD26DE39C28091C0008823EC
S1130B4054F481E08093920780E072DE8093F00990
S1130B5080E051DE11C080919207813011F0109233
S1130B60920792DC8093F009882321F081E080933E
S1130B708F0702C010928F070BDD0DE819E00F2ECE
S1130B80FAE0FF2EF02DF801F082CEE8D9E01882C9
S1130B9061E087E491E0E4DDF801F0820F2EFEE1EC
S1130BA0FF2EF02DF88261E08FE391E0D9DD82E33E
S1130BB0F8018083F88261E08091EA0925DD8CE305
S1130BC0F8018083F88261E08091F0091DDDDADDAF
S1130BD0EDC18091C000882354F481E08093920792
S1130BE080E026DE8093EB0980E005DE11C0809171
S1130BF09207813011F01092920746DC8093EB0942
S1130C00882321F081E080938E0702C010928E0722
S1130C10BFDC0DE819E00F2EFAE0FF2EF02DF801ED
S1130C20F082CEE8D9E0188261E087E491E098DDB3
S1130C30F801F0820F2EFEE1FF2EF02DF88261E024
S1130C408FE391E08DDD82E3F8018083F88261E037
S1130C508091EA09D9DC8CE3F8018083F88261E0B1
S1130C608091F009D1DC86E4F8018083F88261E0A8
S1130C708091EB09C9DC86DD99C19091F0098091DE
S1130C80010198130AC09091EB0980910001981317
S1130C9004C082E080938D073CC07ADC0DE819E043
S1130CA0F8011082CEE8D9E00F2EFAE0FF2EF02DE5
S1130CB0F88261E081E591E053DDF801108284E17E
S1130CC0888361E080E691E04BDDF801F0820F2E2D
S1130CD0FEE1FF2EF02DF88261E08FE391E040DD2C
S1130CE082E3F8018083F88261E08091EA098CDC78
S1130CF08CE3F8018083F88261E08091F00984DC60
S1130D0086E4F8018083F88261E08091EB097CDC61
S1130D1039DD80E094E0A0E0B0E08093EC099093AA
S1130D20ED09A093EE09B093EF0940C180919407B7
S1130D30873020F48F5F8093940702C01092940749
S1130D408091EC099091ED09A091EE09B091EF0921
S1130D500197A105B10511F410928D07383071F493
S1130D60E0919407F0E0ED5FFE4F80818295807FF3
S1130D7082B95C9A82E080938C070BC0E09194075F
S1130D80F0E0ED5FFE4F808182B95C9881E0809352
S1130D908C07FEDB0DE819E00F2EFAE0FF2EF02D94
S1130DA0F801F082CEE8D9E084E1888361E08EE640
S1130DB091E0D6DCF801F0828EE1888361E08FE374
S1130DC091E0CEDC8091920781111BC0780182E30F
S1130DD0F80180831EE1188361E08091EA0914DC44
S1130DE08CE3F7018083188361E08091F0090CDCC7
S1130DF086E4F7018083188361E08091EB0904DCC9
S1130E000AC082E380938D098EE180938E0961E0AC
S1130E1089E791E0A5DC0F2EFDE8EF2EF9E0FF2E27
S1130E20F02D8AE0F7018083CEE8D9E018E2188338
S1130E3061E08FE791E094DC81E4F701808318831B
S1130E4080918C0761E0805DDFDB9CDCAFC080912A
S1130E509407882321F081508093940703C087E08E
S1130E60809394078091EC099091ED09A091EE098B
S1130E70B091EF090197A105B10511F410928D0706
S1130E80383071F4E0919407F0E0ED5FFE4F80811B
S1130E908295807F82B95C9A82E080938C070BC034
S1130EA0E0919407F0E0ED5FFE4F808182B95C9899
S1130EB081E080938C076CDB0DE819E00F2EFAE0DB
S1130EC0FF2EF02DF801F082CEE8D9E084E188838A
S1130ED061E080E791E044DCF801F0820F2EF8E253
S1130EE0FF2EF02DF88261E08FE791E039DC81E498
S1130EF0F8018083F88280918C0761E0805D84DB57
S1130F0041DC54C080918D078111A1CFB9CF5C9889
S1130F102111A2CD8BCDB8DA8093F109813409F087
S1130F20A1CD9CCD9091EA09809102019813B5CE90
S1130F30A4CE80918D07882309F410CFF7CE28DB47
S1130F400F2EFDE8EF2EF9E0FF2EF02D85E0F701DE
S1130F508083CEE8D9E01AE0188361E086E891E066
S1130F60FFDBF701108314E1188361E08091020133
S1130F704BDBF7011083188361E08091010144DBAE
S1130F808EE1F7018083188361E0809100013CDBEE
S1130F90F9DB0CC0FDDA85E080938D098AE080934B
S1130FA08E0961E084E991E0DBDBECDBDF91CF913A
S1130FB01F910F91FF90EF9008951092E9094ADC78
S1130FC083E090E03ED4FBCFAF92BF92CF92DF920A
S1130FD0EF92FF920F93A12CB12CC12CD12CE12CB8
S1130FE0F12C082F20E030E045E550E06EE971E097
S1130FF08DED97E0AED10F91FF90EF90DF90CF9001
S1131000BF90AF9008958FEF81B912B884B915B825
S113101080EF87B98FE088B982EF8AB98DE08BB908
S113102081DA80E22EDA80E0C4DB81E0CDDF92D287
S113103080E090E0089531E1FC013083319722E2B1
S113104020833197A3E3A083319760833197708322
S113105031971082319760E860833197108231971D
S113106062E06083319763E06083319764E060837A
S1131070319765E06083319766E06083319767E07C
S11310806083319768E06083319769E060833197CA
S113109060E1608331973083319732E13083319757
S11310A033E13083319734E13083319735E1308354
S11310B0319736E13083319737E13083319738E126
S11310C03083319739E13083319730E2308331977F
S11310D031E2308331972083319723E220833197A3
S11310E0408331975083319726E22083319727E25A
S11310F02083319728E22083319729E22083319796
S113110020E32083319721E320838697089510926A
S113111089008CE7809388008BE080938100EFE660
S1131120F0E0808182608083A091E709B091E809B2
S1131130CD91CDBFDD91DEBFFF91EF91DF91CF91D6
S1131140BF91AF919F918F917F916F915F914F91DB
S11311503F912F911F910F91FF90EF90DF90CF90CF
S1131160BF90AF909F908F907F906F905F904F90C3
S11311703F902F901F900F900FBE0F90089581E025
S113118008950F920FB6F8940F921F9211242F9284
S11311903F924F925F926F927F928F929F92AF9203
S11311A0BF92CF92DF92EF92FF920F931F932F93F0
S11311B03F934F935F936F937F938F939F93AF93DB
S11311C0BF93CF93DF93EF93FF93A091E709B0917F
S11311D0E8090DB60D920EB60D9288D3A091E709D9
S11311E0B091E809CD91CDBFDD91DEBFFF91EF91C4
S11311F0DF91CF91BF91AF919F918F917F916F912B
S11312005F914F913F912F911F910F91FF90EF901C
S1131210DF90CF90BF90AF909F908F907F906F9012
S11312205F904F903F902F901F900F900FBE0F90A4
S113123008950F920FB6F8940F921F9211242F92D3
S11312403F924F925F926F927F928F929F92AF9252
S1131250BF92CF92DF92EF92FF920F931F932F933F
S11312603F934F935F936F937F938F939F93AF932A
S1131270BF93CF93DF93EF93FF93A091E709B091CE
S1131280E8090DB60D920EB60D9293D12FD3A0910D
S1131290E709B091E809CD91CDBFDD91DEBFFF91A3
S11312A0EF91DF91CF91BF91AF919F918F917F91FA
S11312B06F915F914F913F912F911F910F91FF90EB
S11312C0EF90DF90CF90BF90AF909F908F907F90E2
S11312D06F905F904F903F902F901F900F900FBE94
S11312E00F900895A6DF1895CF93DF93EC01E0915A
S11312F0E709F091E809938382838091970990919B
S11313009809C817D90760F46091E7097091E80952
S11313108091AD099091AE096E5F7F4F33D816C0AE
S11313206091E7097091E8098091AF099091B00943
S11313306E5F7F4F27D880910B0190910C01C817E5
S1131340D90720F4D0930C01C0930B01DF91CF9106
S113135008954F925F926F927F928F929F92AF9275
S1131360BF92CF92DF92EF92FF920F931F93CF938E
S1131370DF935C014B013A01290181E290E00E9474
S11313806201EC01892B09F4D3C0C114D10409F022
S1131390CBC0C3010E946201988F8F8B009721F408
S11313A0CE010E948801C4C0A30165EA70E01FD386
S11313B09301215031098F89988D3C01620E731E6F
S11313C048E050E0B401CE01499618D318A2102F7A
S11313D0043008F013E01E8B6E0182E0C80ED11CAD
S11313E0C6010E949701CE010C960E949701D987ED
S11313F0C88784E090E0811B91099D878C87DB8BF3
S1131400CA8BA201B501C30116DE99838883E11456
S1131410F10419F0F701D183C0830FB6F8940F9249
S1131420809199098F5F809399098091E709909140
S1131430E809892BA9F5D093E809C093E7098091BD
S113144099098130E1F583EC99E00E9489018CECE3
S113145099E00E94890185ED99E00E9489018EED51
S113146099E00E9489018AEB99E00E94890181EB4D
S113147099E00E94890184EA99E00E9489018BE93C
S113148099E00E9489018AEB99E09093B0098093D6
S1131490AF0981EB99E09093AE098093AD090FC039
S11314A08091940981110BC0E091E709F091E8095A
S11314B08689081720F0D093E809C093E7098E893C
S11314C090919609981710F48093960990918F093A
S11314D09F5F90938F0990919509981710F48093CA
S11314E0950990E09C01220F331F220F331F220F16
S11314F0331F820F931FB6018D53964F0E949B0199
S11315000F900FBE80919409882351F0E091E70970
S1131510F091E8098689801728F433DE81E009C058
S113152081E007C081E005C0D88ECF8AC6013CCFD8
S11315308FEFDF91CF911F910F91FF90EF90DF908C
S1131540CF90BF90AF909F908F907F906F905F905F
S11315504F900895AF92BF92CF92DF92EF92FF9295
S11315600F93A12CB12CC12CD12CE12CF12C00E037
S113157020E030E045E550E068EA71E08DE39CE06E
S1131580E8DE813041F4F89480939409109298092C
S113159010929709BCDD0F91FF90EF90DF90CF90F0
S11315A0BF90AF900895809193098F5F80939309C2
S11315B008950F931F93CF93DF9380919309811123
S11315C0B2C08091970990919809019690939809D7
S11315D0809397098091970990919809892B99F59F
S11315E08091AF099091B0092091AD093091AE0975
S11315F03093B0092093AF099093AE098093AD095D
S1131600809190098F5F80939009E091AF09F091E8
S1131610B0098081811107C08FEF9FEF90930C0177
S113162080930B0110C0E091AF09F091B0090580DF
S1131630F681E02D0680F781E02D828193819093DD
S11316400C0180930B0120919709309198098091A6
S11316500B0190910C012817390708F469C0E09137
S1131660AF09F091B0098081882399F0E091AF0926
S1131670F091B0090580F681E02DC681D7818A8179
S11316809B81209197093091980928173907F8F41C
S113169019C08FEF9FEF90930C0180930B0148C00A
S11316A0E091AF09F091B0090580F681E02DC68183
S11316B0D7818A819B8120919709309198092817B5
S11316C0390728F490930C0180930B0131C08E01EB
S11316D00E5F1F4FC8010E94FD018C899D89892BD3
S11316E021F0CE010C960E94FD018E8990919509FE
S11316F0981710F48093950990E09C01220F331FF2
S1131700220F331F220F331F820F931FB8018D53F3
S1131710964F0E949B01E091AF09F091B00980813E
S11317208111BECFB6CF809192098F5F80939209C9
S1131730DF91CF911F910F910895CF92DF92EF9295
S1131740FF920F931F93CF93DF930FB6F8940F92EA
S11317508091930981508093930980919309811119
S113176062C080919909811132C060C0D701159679
S1131770ED91FC911697C681D781CE010C960E94FB
S1131780FD018E010E5F1F4FC8010E94FD018E896D
S113179090919509981710F48093950990E09C0115
S11317A0220F331F220F331F220F331F820F931F69
S11317B0B8018D53964F0E949B01E091E709F09187
S11317C0E8099E898689981758F0DC2C09C0D12C29
S11317D00F2EF4EAEF2EF9E0FF2EF02DCC24C39463
S11317E0F70180818111C2CF80919209882379F019
S11317F080919209882391F0DCDE809192098150D6
S113180080939209809192098111F6CF07C0F1E08B
S1131810DF1621F080919109813039F410929109F9
S1131820B0DC81E003C080E001C080E00F900FBE17
S1131830DF91CF911F910F91FF90EF90DF90CF90A8
S11318400895CF93DF93EC01892B99F0ACDE80915E
S1131850970990919809C80FD91F8091E709909131
S1131860E80902960E94FD01CE013EDD66DF81118A
S113187001C087DCDF91CF9108950F2EFBE9EF2E95
S1131880F9E0FF2EF02DC3ECD9E080919A0988236A
S113189041F189DED7011C9150DF112311F10FB6FC
S11318A0F8940F92D7011596ED91FC911697068145
S11318B01781C80102960E94FD0180919909815007
S11318C08093990980919A09815080939A090F9085
S11318D00FBEF8018789908D0E948801C8010E947B
S11318E088018881823088F24CDCCFCF80919309C3
S11318F0811113C08091950990E0FC01EE0FFF1F48
S1131900EE0FFF1FEE0FFF1F8E0F9F1FFC01ED5305
S1131910F64F8081882329F01BC081E080939109D0
S11319200895809195098150809395098091950936
S113193090E0FC01EE0FFF1FEE0FFF1FEE0FFF1FE5
S11319408E0F9F1FFC01ED53F64F8081882349F3CE
S11319508091950990E09C01220F331F220F331FC1
S1131960220F331F280F391FD901AD53B64F1196DB
S1131970ED91FC9112970280F381E02D1296FC9375
S1131980EE9311972A53364FE217F30729F4228175
S11319903381FD0132832183FC01EE0FFF1FEE0F23
S11319A0FF1FEE0FFF1F8E0F9F1FFC01ED53F64F1D
S11319B00180F281E02D868197819093E8098093DC
S11319C0E7090895991B79E004C0991F961708F058
S11319D0961B881F7A95C9F780950895EE0FFF1F0F
S11319E00024001C0BBE0790F691E02D0994DC0145
S11319F001C06D9341505040E0F70895FB01DC01B4
S1131A004150504048F001900D920020C9F701C0A8
S1111A101D9241505040E0F70895F894FFCF26
S1131A1E33323101030206040C0809FFFF4E6F0036
S1131A2E4D6F74696F6E00412D656E74657220631F
S1131A3E6F646500422D6368616E676520636F6431
S1131A4E6500432D636865636B20636F64650045B1
S1131A5E6E7472793A200050415353434F44453FBC
S1131A6E0057524F4E472050415353574F52440044
S1131A7E5245535441525420424F41524400554E04
S1131A8E4C4F434B494E47210050686F6E650052D0
S1131A9E6F6F6D3A200043757272656E7420436FDA
S1131AAE64653A004E657720436F64653A004D6F66
S1111ABE746F725461736B0049444C45000010
S9030000FC
