S00C00006C6162342E73726563B5
S113000042C100005EC100005CC100005AC1000092
S113001058C1000056C1000054C1000052C1000084
S113002050C100004EC100004CC100004AC1000094
S113003048C100000C947B0944C1000042C1000087
S113004040C100003EC100003CC100003AC10000B4
S113005038C1000036C1000034C1000032C10000C4
S113006030C100002EC100002CC100002AC10000D4
S113007028C1000026C1000024C1000022C10000E4
S113008020C100001EC100001CC1000047044E0432
S1130090630471048B049904A704B504CF04DD043C
S11300A0F70413050005000000000000005F0000D5
S11300B00007000700147F147F14242A7F2A1223C8
S11300C01308646236495522500005030000001CE1
S11300D02241000041221C0014083E081408083E76
S11300E00808005030000008080808080060600094
S11300F00020100804023E5149453E00427F400062
S113010042615149462141454B311814127F102751
S1130110454545393C4A4949300171090503364989
S1130120494936064949291E00363600000056362C
S11301300000081422410014141414140041221461
S1130140080201510906324979413E7E1111117E9E
S11301507F494949363E414141227F4141221C7F2A
S1130160494949417F090909013E4149497A7F08C2
S113017008087F00417F41002040413F017F08146F
S113018022417F404040407F020C027F7F040810E0
S11301907F3E4141413E7F090909063E4151215EAE
S11301A07F09192946464949493101017F01013F27
S11301B04040403F1F2040201F3F4038403F6314D1
S11301C008146307087008076151494543007F41DB
S11301D0410002040810200041417F000402010292
S11301E0044040404040000102040020545454782C
S11301F07F484444383844444420384444487F3891
S113020054545418087E0901020C5252523E7F087D
S113021004047800447D40002040443D007F1028C1
S1130220440000417F40007C041804787C080404E6
S11302307838444444387C14141408081414187C82
S11302407C080404084854545420043F4440203C8F
S11302504040207C1C2040201C3C4030403C442832
S11302601028440C5050503C4464544C440008360C
S1130270410000007F00000041360800100808100B
S113028008000000000011241FBECFEFD0E4DEBF41
S1130290CDBF11E0A0E0B1E0E0E3FAE100E00BBF84
S11302A002C007900D92A23BB107D9F729E0A2EB57
S11302B0B1E001C01D92A23FB207E1F7ADD60C94A4
S11302C0160D9ECECF93DF93EC010E94DC0A2091A1
S11302D0B2013091B301C9018C0F9D1F8C3D45E0E3
S11302E0940758F42817390758F4E901CC54DE4F21
S11302F09093B3018093B20105C0C0E0D0E002C086
S1130300C0E0D0E00E94A60BCE01DF91CF9108950A
S11303100895FC010396928381832FEF3FEF34838A
S11303202383968385839087878310820895FC01B5
S1130330118610860895CF93DF93FC01DB012181A0
S11303403281E9018A819B8113969C938E93129743
S11303508181928115969C938E9314978A819B81B7
S1130360EC017D836C83E9017B836A8372836183FF
S11303701996FC93EE93189780818F5F8083DF91A9
S1130380CF910895CF93DF93EB01488159814F3F7B
S11303902FEF520731F4DC011796ED91FC91189779
S11303A017C0FC013396DC0115962D913C911697EC
S11303B0D9012D913C914217530750F00280F381EB
S11303C0E02DA281B3812D913C9142175307B0F7E0
S11303D0A281B381BB83AA831596DC93CE93149731
S11303E0FD83EC83D383C28399878887FC012081B2
S11303F02F5F2083DF91CF910895FC01A281B38107
S11304008481958115969C938E931497A481B581CC
S11304108281938113969C938E931297A085B185C4
S113042011968D919C911297E817F90731F4848104
S1130430958112969C938E931197118610868C91B8
S113044081508C9308952898662311F02A9A15C038
S11304502A9813C0AC01022E02C0559547950A9400
S1130460E2F740FF02C02B9A01C02B982C9A2C98DB
S11304702150310978F7289A089527E030E090E078
S1130480E9CF60E0E0CF08958FEE88B90000309B9B
S113049029C0319B29C0329B29C0339B29C08FEDD1
S11304A088B90000309B26C0319B26C0329B26C0F1
S11304B0339B26C08FEB88B90000309B23C0319B4F
S11304C023C0329B23C0339B23C08FE788B900002D
S11304D0309B20C0319B20C0329B20C0339B20C066
S11304E080E0089581E3089584E3089587E30895FF
S11304F08AE2089582E3089585E3089588E30895E0
S113050080E3089583E3089586E3089589E30895D5
S113051083E2089581E4089582E4089583E40895CC
S113052084E40895CF93DF93209A219A229A239A00
S1130530249A299A289A83EC99E00197F1F700C04C
S1130540000029988BE594E40197F1F700C00000BE
S1130550299A289881E295DF83E193DF86E091DF91
S113056082EC8FDF80E28DDF89E08BDF80E889DF3A
S113057080E487DFC8EFD1E061E080E064DF2197A9
S1130580D9F788E07EDF8CE07CDFDF91CF9108959E
S113059080E877DF80E475DF109291091092920968
S11305A0E9E9F7E081E999E01192E817F907E1F741
S11305B00895262F26952695269590E034E5239FC9
S11305C0800D911D1124442379F0FC01E756F84F66
S11305D0677081E090E002C0880F991F6A95E2F786
S11305E09081892B80830895FC01E756F84F67704A
S11305F081E090E002C0880F991F6A95E2F7809528
S113060090818923808308955F926F927F928F9265
S11306109F92AF92BF92CF92DF92EF92FF920F938D
S11306201F93CF93DF93562E262F30E04901880C79
S1130630991C880C991C820E931E181419040CF032
S11306405BC08901000F111F000F111F000F111F44
S1130650021B130B612CA82EB12CC50180975C01E1
S1130660AA0CBB1CAA0CBB1CA80EB91E0F2EF2E9C7
S1130670CF2EF9E0DF2EF02D0F2EF1E9EF2EF9E069
S1130680FF2EF02D2BC0FE01249130E0872D652D27
S11306900E94EB0C02C0359527958A95E2F720FF5E
S11306A009C0F6016081670DF701808141E0860D84
S11306B080DF08C0F6016081670DF701808140E0AA
S11306C0860D77DF7394872D90E080179107DCF215
S11306D06394862D90E08815990574F4101611061C
S11306E0BCF7862D652D0E94EB0CE501C80FD11DCA
S11306F0CA55DF4F712CC7CF8091910991E0980FB3
S1130700852D880F880F850D890F843518F4809303
S113071091090EC010929109E2E9F9E0808191E01B
S1130720980F852D880F880F880F8519890F80836E
S113073080919209803320F01092910910929209CD
S1130740DF91CF911F910F91FF90EF90DF90CF90A9
S1130750BF90AF909F908F907F906F905F9008951F
S11307601F93CF93DF93EC018881882339F0162FF0
S11307702196612F49DF89918111FBCFDF91CF91C0
S11307801F9108950F931F93CF93DF9380E879DE31
S113079080E477DEC9E9D7E001E919E061E08991F5
S11307A052DEC017D107D1F7DF91CF911F910F917E
S11307B00895813081F0E1ECF0E0808188618083EC
S11307C0E2ECF0E080818660808385E08093C40061
S11307D01092C5000895E9ECF0E08081886180837F
S11307E0EAECF0E080818660808385E08093CC0031
S11307F01092CD000895813029F48091C800882397
S113080074F008958091C00088238CF4A6ECB0E0C5
S1130810E0ECF0E08C9180818823E4F30895AEEC61
S1130820B0E0E8ECF0E08C9180818823E4F3089553
S1130830813041F0E0ECF0E080818823ECF7809196
S1130840C6000895E8ECF0E080818823ECF78091FD
S1130850CE000895CF92DF92EF92FF920F931F93F1
S1130860CF93DF9389B18095382F387089B1809503
S1130870282F2470E091ED098E2F90E08D309105A2
S113088008F0E1C0FC01EA5BFF4F0C94F70C243044
S113089009F03DC381E08093ED0945C3809195073C
S11308A0813021F482E08093ED0987C3823021F402
S11308B085E08093ED096FC3833009F034C384E08D
S11308C08093ED0937C380919707853630F083E034
S11308D08093ED091092970702C18F5F8093970769
S11308E06CC380919407813041F480919607811103
S11308F0F6C086E08093ED0960C38111F0C0809159
S11309009607813009F0EBC08CE08093ED0982E01A
S1130910809391070FC280919707853630F081E06C
S11309208093ED0910929707FEC28F5F809397071B
S113093001C380919707853630F081E08093ED09FB
S113094010929707F0C28F5F8093970724C380911A
S11309509707893C30F087E08093ED091092970760
S1130960FCC08F5F8093970728C3809193078130E1
S113097041F4809196078111F0C088E08093ED09DD
S11309801CC38111EAC080919607813009F0E5C04B
S11309908CE08093ED0982E080939107CBC1809134
S11309A09707893C30F089E08093ED09109297070E
S11309B020C18F5F8093970700C380919207813095
S11309C041F480919607811114C18AE08093ED0966
S11309D0A2C281110EC180919607813009F009C12C
S11309E08CE08093ED0982E080939107A3C180910C
S11309F09107823009F08FC28CE08093ED099AC18F
S1130A0080919707893C30F08BE08093ED09109238
S1130A109707CEC28F5F80939707809191078823B1
S1130A2009F4A0C187C180919707893C40F01092D6
S1130A30ED0910929707109291075C9807C08F5F99
S1130A4080939707B5C21092ED0961C2A1DD01E957
S1130A5019E083E2F8018083C2E9D9E0188262E0F8
S1130A6081E191E07DDE8FE0F801808384E1888379
S1130A7062E084E191E074DE85DE9FC281E08093D0
S1130A8095070EC0823421F482E08093950708C054
S1130A90833421F483E08093950702C01092950774
S1130AA077DD01E919E0F8011082C2E9D9E08AE0B2
S1130AB0888361E08BE191E053DEF801108284E1E8
S1130AC0888361E088E291E04BDEF80110828EE1D8
S1130AD0888361E086E391E043DE54DE6EC2809158
S1130AE0C000882354F481E08093960780E0A0DE60
S1130AF08093EE0980E07FDE0DC010929607C4DC7F
S1130B008093EE09882321F081E08093940702C04A
S1130B10109294073DDD0F2EF1E9EF2EF9E0FF2E40
S1130B20F02D1EE1F7011083C2E9D9E0188261E0DB
S1130B308FE491E015DE8AE0F7018083188361E099
S1130B4083E491E00DDE82E3F7018083188361E0A2
S1130B508091EE0959DD16DE30C28091C0008823F1
S1130B6054F481E08093960780E062DE8093F0097C
S1130B7080E041DE11C080919607813011F010921F
S1130B80960782DC8093F009882321F081E080932A
S1130B90930702C010929307FBDC01E919E00F2EC2
S1130BA0FAE0FF2EF02DF801F082C2E9D9E01882B4
S1130BB061E08BE491E0D4DDF801F0820F2EFEE1D8
S1130BC0FF2EF02DF88261E083E491E0C9DD82E339
S1130BD0F8018083F88261E08091EE0915DD8CE3F1
S1130BE0F8018083F88261E08091F0090DDDCADDAF
S1130BF0E4C18091C000882354F481E08093960777
S1130C0080E016DE8093EF0980E0F5DD11C080916D
S1130C109607813011F01092960736DC8093EF0925
S1130C20882321F081E08093920702C010929207FA
S1130C30AFDC01E919E00F2EFAE0FF2EF02DF801E8
S1130C40F082C2E9D9E0188261E08BE491E088DDAA
S1130C50F801F0820F2EFEE1FF2EF02DF88261E004
S1130C6083E491E07DDD82E3F8018083F88261E032
S1130C708091EE09C9DC8CE3F8018083F88261E09D
S1130C808091F009C1DC86E4F8018083F88261E098
S1130C908091EF09B9DC76DD90C1909101018091DA
S1130CA0F00998130AC0909102018091EF099813FA
S1130CB004C082E08093910780C16ADC01E919E0F5
S1130CC0F8011082C2E9D9E00F2EFAE0FF2EF02DD0
S1130CD0F88261E085E591E043DDF801108284E16A
S1130CE0888361E084E691E03BDDF801F0820F2E19
S1130CF0FEE1FF2EF02DF88261E083E491E030DD27
S1130D0082E3F8018083F88261E08091EE097CDC63
S1130D108CE3F8018083F88261E08091F00974DC4F
S1130D2086E4F8018083F88261E08091EF096CDC4D
S1130D3029DD43C180919807873020F48F5F809329
S1130D40980702C0109298078091030190910401C2
S1130D50A0910501B09106010197A105B10511F417
S1130D6010929107383071F4E0919807F0E0E95F50
S1130D70FE4F80818295807F82B95C9A82E0809365
S1130D8090070BC0E0919807F0E0E95FFE4F808187
S1130D9082B95C9881E080939007FADB0F2EF1E929
S1130DA0EF2EF9E0FF2EF02DCAE0F701C08302E92F
S1130DB019E0F801C08361E082E791E0D1DCF7013A
S1130DC0C0838EE1F801808361E083E491E0C8DCB4
S1130DD08091960781111BC082E3F7018083E801AB
S1130DE01EE1188361E08091EE090EDC8CE3F701CB
S1130DF08083188361E08091F00906DC86E4F701C2
S1130E008083188361E08091EF09FEDB0AC082E3EE
S1130E10809391098EE18093920961E08DE791E0DE
S1130E209FDC0F2EF1E9EF2EF9E0FF2EF02D8AE082
S1130E30F7018083C2E9D9E018E2188361E083E80E
S1130E4091E08EDC81E4F701808318838091900720
S1130E5061E0805DD9DB96DCB0C08091980788237F
S1130E6021F081508093980703C087E0809398070E
S1130E708091030190910401A0910501B0910601B4
S1130E800197A105B10511F410929107383071F45E
S1130E90E0919807F0E0E95FFE4F80818295807FC2
S1130EA082B95C9A82E0809390070BC0E091980726
S1130EB0F0E0E95FFE4F808182B95C9881E0809325
S1130EC0900766DB01E919E00F2EFAE0FF2EF02D02
S1130ED0F801F082C2E9D9E0F88261E084E791E0A8
S1130EE03FDCF801F0820F2EF8E2FF2EF02DF8829D
S1130EF061E083E891E034DC81E4F8018083F882E6
S1130F008091900761E0805D7FDB3CDC56C05C989B
S1130F102111B2CD9BCD909100018091EE099817DB
S1130F2009F4BBCECACEB0DA8093F109813409F05A
S1130F30A9CDA4CD2DDB0F2EF1E9EF2EF9E0FF2E84
S1130F40F02D85E0F7018083C2E9D9E01AE0188327
S1130F5061E08AE891E004DCF701108314E118836E
S1130F600F2EF0E0CF2EF1E0DF2EF02D61E0F60140
S1130F7080814ADBF7011083188361E0F6018181E7
S1130F8043DB8EE1F7018083188361E0F6018281FF
S1130F903BDBF8DB12C0FCDA85E0809391098AE040
S1130FA08093920961E088E991E0DADBEBDB05C02C
S1130FB080919107811151CF69CFDF91CF911F911A
S1130FC00F91FF90EF90DF90CF9008951092ED096C
S1130FD041DC83E090E03ED4FBCFAF92BF92CF924E
S1130FE0DF92EF92FF920F93A12CB12CC12CD12C44
S1130FF0E12CF12C082F20E030E045E550E062EAD6
S113100071E086EE97E0AED10F91FF90EF90DF9004
S1131010CF90BF90AF9008958FEF81B912B884B983
S113102015B880EF87B98FE088B982EF8AB98DE06F
S11310308BB978DA80E225DA80E0BBDB81E0CDDFB2
S113104092D280E090E0089531E1FC013083319741
S113105022E220833197A3E3A08331976083319701
S1131060708331971082319760E8608331971082E2
S1131070319762E06083319763E06083319764E085
S11310806083319765E06083319766E060833197D0
S113109067E06083319768E06083319769E060833B
S11310A0319760E1608331973083319732E1308347
S11310B0319733E13083319734E13083319735E12F
S11310C03083319736E13083319737E1308331977C
S11310D038E13083319739E13083319730E230831E
S11310E0319731E2308331972083319723E2208393
S11310F03197408331975083319726E2208331978B
S113110027E22083319728E22083319729E2208344
S1131110319720E32083319721E320838697089534
S1131120109289008CE7809388008BE08093810083
S1131130EFE6F0E0808182608083A091EB09B091BA
S1131140EC09CD91CDBFDD91DEBFFF91EF91DF9131
S1131150CF91BF91AF919F918F917F916F915F914B
S11311604F913F912F911F910F91FF90EF90DF903E
S1131170CF90BF90AF909F908F907F906F905F9033
S11311804F903F902F901F900F900FBE0F90089597
S113119081E008950F920FB6F8940F921F921124D4
S11311A02F923F924F925F926F927F928F929F9273
S11311B0AF92BF92CF92DF92EF92FF920F931F9361
S11311C02F933F934F935F936F937F938F939F934B
S11311D0AF93BF93CF93DF93EF93FF93A091EB096A
S11311E0B091EC090DB60D920EB60D9288D3A09174
S11311F0EB09B091EC09CD91CDBFDD91DEBFFF913C
S1131200EF91DF91CF91BF91AF919F918F917F919A
S11312106F915F914F913F912F911F910F91FF908B
S1131220EF90DF90CF90BF90AF909F908F907F9082
S11312306F905F904F903F902F901F900F900FBE34
S11312400F9008950F920FB6F8940F921F921124E5
S11312502F923F924F925F926F927F928F929F92C2
S1131260AF92BF92CF92DF92EF92FF920F931F93B0
S11312702F933F934F935F936F937F938F939F939A
S1131280AF93BF93CF93DF93EF93FF93A091EB09B9
S1131290B091EC090DB60D920EB60D9293D12FD3E9
S11312A0A091EB09B091EC09CD91CDBFDD91DEBFEA
S11312B0FF91EF91DF91CF91BF91AF919F918F916A
S11312C07F916F915F914F913F912F911F910F915A
S11312D0FF90EF90DF90CF90BF90AF909F908F9052
S11312E07F906F905F904F903F902F901F900F9042
S11312F00FBE0F900895A6DF1895CF93DF93EC01EE
S1131300E091EB09F091EC099383828380919B092E
S113131090919C09C817D90760F46091EB0970910A
S1131320EC098091B1099091B2096E5F7F4F2AD880
S113133016C06091EB097091EC098091B30990910A
S1131340B4096E5F7F4F1ED880910F0190911001F8
S1131350C817D90720F4D0931001C0930F01DF916F
S1131360CF9108954F925F926F927F928F929F9246
S1131370AF92BF92CF92DF92EF92FF920F931F939F
S1131380CF93DF935C014B013A01290181E290E0A4
S11313900E946201EC01892B09F4D3C0C114D10469
S11313A009F0CBC0C3010E946201988F8F8B009714
S11313B021F4CE010E948801C4C0A30165EA70E053
S11313C01FD39301215031098F89988D3C01620EFE
S11313D0731E48E050E0B401CE01499618D318A218
S11313E0102F043008F013E01E8B6E0182E0C80E4B
S11313F0D11CC6010E949701CE010C960E94970150
S1131400D987C88784E090E0811B91099D878C87E8
S1131410DB8BCA8BA201B501C30116DE99838883D5
S1131420E114F10419F0F701D183C0830FB6F894E5
S11314300F9280919D098F5F80939D098091EB09A4
S11314409091EC09892BA9F5D093EC09C093EB0991
S113145080919D098130E1F587EC99E00E94890132
S113146080ED99E00E94890189ED99E00E9489014B
S113147082EE99E00E9489018EEB99E00E94890135
S113148085EB99E00E94890188EA99E00E9489012C
S11314908FE999E00E9489018EEB99E09093B40959
S11314A08093B30985EB99E09093B2098093B109D5
S11314B00FC08091980981110BC0E091EB09F09164
S11314C0EC098689081720F0D093EC09C093EB0946
S11314D08E8990919A09981710F480939A099091A3
S11314E093099F5F9093930990919909981710F429
S11314F08093990990E09C01220F331F220F331F20
S1131500220F331F820F931FB6018953964F0E94F7
S11315109B010F900FBE80919809882351F0E091B0
S1131520EB09F091EC098689801728F433DE81E019
S113153009C081E007C081E005C0D88ECF8AC6010A
S11315403CCF8FEFDF91CF911F910F91FF90EF90E0
S1131550DF90CF90BF90AF909F908F907F906F90CF
S11315605F904F900895AF92BF92CF92DF92EF9227
S1131570FF920F93A12CB12CC12CD12CE12CF12C76
S113158000E020E030E045E550E06CEA71E086E4FC
S11315909CE0E8DE813041F4F8948093980910923D
S11315A09C0910929B09BCDD0F91FF90EF90DF9096
S11315B0CF90BF90AF900895809197098F5F8093EB
S11315C0970908950F931F93CF93DF938091970901
S11315D08111B2C080919B0990919C0901969093CE
S11315E09C0980939B0980919B0990919C09892B6C
S11315F099F58091B3099091B4092091B109309182
S1131600B2093093B4092093B3099093B20980933B
S1131610B109809194098F5F80939409E091B30993
S1131620F091B4098081811107C08FEF9FEF9093EF
S1131630100180930F0110C0E091B309F091B40937
S11316400580F681E02D0680F781E02D828193816B
S11316509093100180930F0120919B0930919C0974
S113166080910F01909110012817390708F469C07F
S1131670E091B309F091B4098081882399F0E09155
S1131680B309F091B4090580F681E02DC681D781B4
S11316908A819B8120919B0930919C0928173907E5
S11316A0F8F419C08FEF9FEF9093100180930F010E
S11316B048C0E091B309F091B4090580F681E02DAA
S11316C0C681D7818A819B8120919B0930919C0995
S11316D02817390728F49093100180930F0131C023
S11316E08E010E5F1F4FC8010E94FD018C899D89E8
S11316F0892B21F0CE010C960E94FD018E899091D8
S11317009909981710F48093990990E09C01220F8D
S1131710331F220F331F220F331F820F931FB80171
S11317208953964F0E949B01E091B309F091B4094B
S113173080818111BECFB6CF809196098F5F80934F
S11317409609DF91CF911F910F910895CF92DF9267
S1131750EF92FF920F931F93CF93DF930FB6F894FA
S11317600F928091970981508093970980919709EE
S1131770811162C080919D09811132C060C0D7017E
S11317801596ED91FC911697C681D781CE010C96E2
S11317900E94FD018E010E5F1F4FC8010E94FD01D2
S11317A08E8990919909981710F48093990990E083
S11317B09C01220F331F220F331F220F331F820F6E
S11317C0931FB8018953964F0E949B01E091EB0946
S11317D0F091EC099E898689981758F0DC2C09C091
S11317E0D12C0F2EF8EAEF2EF9E0FF2EF02DCC24A9
S11317F0C394F70180818111C2CF80919609882317
S113180079F080919609882391F0DCDE8091960925
S1131810815080939609809196098111F6CF07C073
S1131820F1E0DF1621F080919509813039F41092AE
S11318309509B0DC81E003C080E001C080E00F9036
S11318400FBEDF91CF911F910F91FF90EF90DF902A
S1131850CF900895CF93DF93EC01892B99F0ACDE00
S113186080919B0990919C09C80FD91F8091EB0925
S11318709091EC0902960E94FD01CE013EDD66DFE7
S1131880811101C087DCDF91CF9108950F2EFFE90C
S1131890EF2EF9E0FF2EF02DC7ECD9E080919E09E0
S11318A0882341F189DED7011C9150DF112311F106
S11318B00FB6F8940F92D7011596ED91FC911697F7
S11318C006811781C80102960E94FD0180919D093D
S11318D0815080939D0980919E09815080939E0937
S11318E00F900FBEF8018789908D0E948801C8016E
S11318F00E9488018881823088F24CDCCFCF8091AD
S11319009709811113C08091990990E0FC01EE0FB1
S1131910FF1FEE0FFF1FEE0FFF1F8E0F9F1FFC0117
S1131920E953F64F8081882329F01BC081E080931E
S1131930950908958091990981508093990980911E
S1131940990990E0FC01EE0FFF1FEE0FFF1FEE0F51
S1131950FF1F8E0F9F1FFC01E953F64F80818823E0
S113196049F38091990990E09C01220F331F220FC3
S1131970331F220F331F280F391FD901A953B64F24
S11319801196ED91FC9112970280F381E02D12964D
S1131990FC93EE9311972653364FE217F30729F47D
S11319A022813381FD0132832183FC01EE0FFF1F6D
S11319B0EE0FFF1FEE0FFF1F8E0F9F1FFC01E95359
S11319C0F64F0180F281E02D868197819093EC0996
S11319D08093EB090895991B79E004C0991F961729
S11319E008F0961B881F7A95C9F780950895EE0F25
S11319F0FF1F0024001C0BBE0790F691E02D0994F4
S1131A00DC0101C06D9341505040E0F70895FB01A3
S1131A10DC014150504048F001900D920020C9F77C
S1131A2001C01D9241505040E0F70895F894FFCF53
S1131A303132330004000001030206040C0809FFDC
S1131A40FF4E6F004D6F74696F6E00412D656E74AB
S1131A50657220636F646500422D6368616E67651B
S1131A6020636F646500432D636865636B20636F57
S1131A70646500456E7472793A20005041535343B3
S1131A804F44453F0057524F4E4720504153535700
S1131A904F5244005245535441525420424F4152F4
S1131AA04400554E4C4F434B494E47210050686FFC
S1131AB06E6500526F6F6D3A200043757272656EE9
S1131AC07420436F64653A004E657720436F646504
S1131AD03A004D6F746F725461736B0049444C4506
S1051AE0000000
S9030000FC
