:1000000042C100005EC100005CC100005AC1000096
:1000100058C1000056C1000054C1000052C1000088
:1000200050C100004EC100004CC100004AC1000098
:1000300048C100000C94600944C1000042C10000A6
:1000400040C100003EC100003CC100003AC10000B8
:1000500038C1000036C1000034C1000032C10000C8
:1000600030C100002EC100002CC100002AC10000D8
:1000700028C1000026C1000024C1000022C10000E8
:1000800020C100001EC100001CC1000047044E0436
:100090005D046B0485049304AD04BB04D504E30440
:1000A000FD0419050605000000000000005F0000C7
:1000B0000007000700147F147F14242A7F2A1223CC
:1000C0001308646236495522500005030000001CE5
:1000D0002241000041221C0014083E081408083E7A
:1000E0000808005030000008080808080060600098
:1000F0000020100804023E5149453E00427F400066
:1001000042615149462141454B311814127F102755
:10011000454545393C4A494930017109050336498D
:10012000494936064949291E003636000000563630
:100130000000081422410014141414140041221465
:10014000080201510906324979413E7E1111117EA2
:100150007F494949363E414141227F4141221C7F2E
:10016000494949417F090909013E4149497A7F08C6
:1001700008087F00417F41002040413F017F081473
:1001800022417F404040407F020C027F7F040810E4
:100190007F3E4141413E7F090909063E4151215EB2
:1001A0007F09192946464949493101017F01013F2B
:1001B0004040403F1F2040201F3F4038403F6314D5
:1001C00008146307087008076151494543007F41DF
:1001D000410002040810200041417F000402010296
:1001E0000440404040400001020400205454547830
:1001F0007F484444383844444420384444487F3895
:1002000054545418087E0901020C5252523E7F0881
:1002100004047800447D40002040443D007F1028C5
:10022000440000417F40007C041804787C080404EA
:100230007838444444387C14141408081414187C86
:100240007C080404084854545420043F4440203C93
:100250004040207C1C2040201C3C4030403C442836
:100260001028440C5050503C4464544C4400083610
:10027000410000007F00000041360800100808100F
:1002800008000000000011241FBECFEFD0E4DEBF45
:10029000CDBF11E0A0E0B1E0EAEFF9E100E00BBF73
:1002A00002C007900D92A83AB107D9F729E0A8EA51
:1002B000B1E001C01D92A83EB207E1F792D60C94BE
:1002C000FB0C9ECECF93DF93EC010E94C10A2091DC
:1002D000A8013091A901C9018C0F9D1F8C3D45E0FB
:1002E000940758F42817390758F4E901C655DE4F2A
:1002F0009093A9018093A80105C0C0E0D0E002C09E
:10030000C0E0D0E00E948B0BCE01DF91CF91089529
:100310000895FC010396928381832FEF3FEF34838E
:100320002383968385839087878310820895FC01B9
:10033000118610860895CF93DF93FC01DB012181A4
:100340003281E9018A819B8113969C938E93129747
:100350008181928115969C938E9314978A819B81BB
:10036000EC017D836C83E9017B836A837283618303
:100370001996FC93EE93189780818F5F8083DF91AD
:10038000CF910895CF93DF93EB01488159814F3F7F
:100390002FEF520731F4DC011796ED91FC9118977D
:1003A00017C0FC013396DC0115962D913C911697F0
:1003B000D9012D913C914217530750F00280F381EF
:1003C000E02DA281B3812D913C9142175307B0F7E4
:1003D000A281B381BB83AA831596DC93CE93149735
:1003E000FD83EC83D383C28399878887FC012081B6
:1003F0002F5F2083DF91CF910895FC01A281B3810B
:100400008481958115969C938E931497A481B581D0
:100410008281938113969C938E931297A085B185C8
:1004200011968D919C911297E817F90731F4848108
:10043000958112969C938E931197118610868C91BC
:1004400081508C9308952898662311F02A9A15C03C
:100450002A9813C0AC01022E02C0559547950A9404
:10046000E2F740FF02C02B9A01C02B982C9A2C98DF
:100470002150310978F7289A089527E030E090E07C
:10048000E9CF60E0E0CF08958FEE88B90000309B9F
:1004900029C0319B29C0329B29C0339B29C08FEDD5
:1004A00088B90000309B26C0319B26C0329B26C0F5
:1004B000339B26C08FEB88B90000309B23C0319B53
:1004C00023C0329B23C0339B23C08FE788B9000031
:1004D000309B20C0319B20C0329B20C0339B20C06A
:1004E00080E0089581E3089584E3089587E3089503
:1004F0008AE2089582E3089585E3089588E30895E4
:1005000080E3089583E3089586E3089589E30895D9
:1005100083E2089581E4089582E4089583E40895D0
:1005200084E40895CF93DF93209A219A229A239A04
:10053000249A299A289A83EC99E00197F1F700C050
:10054000000029988BE594E40197F1F700C00000C2
:10055000299A289881E295DF83E193DF86E091DF95
:1005600082EC8FDF80E28DDF89E08BDF80E889DF3E
:1005700080E487DFC8EFD1E061E080E064DF2197AD
:10058000D9F788E07EDF8CE07CDFDF91CF910895A2
:1005900080E877DF80E475DF109287091092880980
:1005A000EFE8F7E087E899E01192E817F907E1F73B
:1005B0000895262F26952695269590E034E5239FCD
:1005C000800D911D1124442379F0FC01E157F84F6F
:1005D000677081E090E002C0880F991F6A95E2F78A
:1005E0009081892B80830895FC01E157F84F677053
:1005F00081E090E002C0880F991F6A95E2F780952C
:1006000090818923808308955F926F927F928F9269
:100610009F92AF92BF92CF92DF92EF92FF920F9391
:100620001F93CF93DF93562E262F30E04901880C7D
:10063000991C880C991C820E931E181419040CF036
:100640005BC08901000F111F000F111F000F111F48
:10065000021B130B612CA82EB12CC50180975C01E5
:10066000AA0CBB1CAA0CBB1CA80EB91E0F2EF8E8C6
:10067000CF2EF9E0DF2EF02D0F2EF7E8EF2EF9E068
:10068000FF2EF02D2BC0FE01249130E0872D652D2B
:100690000E94D00C02C0359527958A95E2F720FF7D
:1006A00009C0F6016081670DF701808141E0860D88
:1006B00080DF08C0F6016081670DF701808140E0AE
:1006C000860D77DF7394872D90E080179107DCF219
:1006D0006394862D90E08815990574F41016110620
:1006E000BCF7862D652D0E94D00CE501C80FD11DE9
:1006F000CA55DF4F712CC7CF8091870991E0980FC1
:10070000852D880F880F850D890F843518F4809307
:1007100087090EC010928709E8E8F9E0808191E02E
:10072000980F852D880F880F880F8519890F808372
:1007300080918809803320F01092870910928809EF
:10074000DF91CF911F910F91FF90EF90DF90CF90AD
:10075000BF90AF909F908F907F906F905F90089523
:100760001F93CF93DF93EC018881882339F0162FF4
:100770002196612F49DF89918111FBCFDF91CF91C4
:100780001F9108950F931F93CF93DF9380E879DE35
:1007900080E477DECFE8D7E007E819E061E08991EF
:1007A00052DEC017D107D1F7DF91CF911F910F9182
:1007B0000895813081F0E1ECF0E0808188618083F0
:1007C000E2ECF0E080818660808385E08093C40065
:1007D0001092C5000895E9ECF0E080818861808383
:1007E000EAECF0E080818660808385E08093CC0035
:1007F0001092CD000895813029F48091C80088239B
:1008000074F008958091C00088238CF4A6ECB0E0C9
:10081000E0ECF0E08C9180818823E4F30895AEEC65
:10082000B0E0E8ECF0E08C9180818823E4F3089557
:10083000813041F0E0ECF0E080818823ECF780919A
:10084000C6000895E8ECF0E080818823ECF7809101
:10085000CE000895CF92DF92EF92FF920F931F93F5
:10086000CF93DF9389B18095382F387089B1809507
:10087000282F2470E091E3098E2F90E08D309105B0
:1008800008F0E7C0FC01EA5BFF4F0C94DC0C24305D
:1008900009F037C381E08093E30937C380918B0768
:1008A000813021F482E08093E3096CC3833009F046
:1008B0002CC384E08093E3092FC380918D07853694
:1008C00030F083E08093E30910928D070AC18F5FB7
:1008D00080938D0757C380918A07813041F48091BE
:1008E0008C078111FEC086E08093E3094BC3811120
:1008F000F8C080918C07813009F0F3C08CE08093C0
:10090000E30982E08093870707C280918D078536CF
:1009100030F081E08093E30910928D07F6C28F5F7B
:1009200080938D07F9C280918D07853630F081E084
:100930008093E30910928D07E8C28F5F80938D0743
:1009400027DE85E0809387098AE08093880961E04B
:1009500081E191E005DF16DF15C380918D07893CA9
:1009600030F087E08093E30910928D07F8C08F5F25
:1009700080938D0707C380918907813041F480916E
:100980008C078111ECC088E08093E309FBC28111E0
:10099000E6C080918C07813009F0E1C08CE0809343
:1009A000E30982E080938707B7C180918D07893C76
:1009B00030F089E08093E30910928D0714C18F5FB6
:1009C00080938D07DFC280918807813041F4809148
:1009D0008C07811108C18AE08093E3098AC28111E2
:1009E00002C180918C07813009F0FDC08CE08093BA
:1009F000E30982E0809387078FC180918707823067
:100A000009F077C28CE08093E30986C180918D075D
:100A1000893C30F08BE08093E30910928D07ADC2E2
:100A20008F5F80938D0780918707882309F48CC19D
:100A300073C180918D07893C40F01092E3091092B8
:100A40008D07109287075C9807C08F5F80938D0792
:100A500094C21092E30955C29BDD07E819E083E2D6
:100A6000F8018083C8E8D9E0188262E08BE191E068
:100A700077DE8FE0F801808384E1888362E08EE195
:100A800091E06EDE7FDE7EC281E080938B0708C03E
:100A9000833421F483E080938B0702C010928B078C
:100AA00077DD07E819E00F2EFEE1FF2EF02DF801AB
:100AB000F082C8E8D9E0188261E085E291E050DE7A
:100AC000F801108284E1888361E08AE291E048DEE7
:100AD000F8011082F88261E089E391E041DE52DEA4
:100AE00051C28091C000882354F481E080938C0728
:100AF00080E09EDE8093E40980E07DDE0DC01092F0
:100B00008C07C2DC8093E409882321F081E0809384
:100B10008A0702C010928A073BDD0F2EF7E8EF2EFE
:100B2000F9E0FF2EF02D1EE1F7011083C8E8D9E0AF
:100B3000188261E088E491E013DE8AE0F7018083A7
:100B4000188361E08EE491E00BDE82E3F70180839D
:100B5000188361E08091E40957DD14DE13C28091AF
:100B6000C000882354F481E080938C0780E060DE2D
:100B70008093E60980E03FDE0BC086DC8093E609C7
:100B8000882321F081E08093890702C010928907B1
:100B9000FFDC0F2EF7E8EF2EF9E0FF2EF02D1EE11F
:100BA000F7011083C8E8D9E0188261E088E491E099
:100BB000D7DD8AE0F7018083188361E08EE491E05D
:100BC000CFDD82E3F7018083188361E08091E4093F
:100BD0001BDD8CE3F7018083188361E08091E609D7
:100BE00013DDD0DDCFC18091C000882354F481E0B3
:100BF00080938C0780E01CDE8093E50980E0FBDDBC
:100C00000BC042DC8093E509882321F081E08093CA
:100C1000880702C010928807BBDC0F2EF7E8EF2E82
:100C2000F9E0FF2EF02D1EE1F7011083C8E8D9E0AE
:100C3000188261E088E491E093DD8AE0F701808327
:100C4000188361E08EE491E08BDD82E3F70180831D
:100C5000188361E08091E409D7DC8CE3F70180839D
:100C6000188361E08091E609CFDC86E4F701808398
:100C7000188361E08091E509C7DC84DD83C1909130
:100C800001018091E60998130AC0909102018091B8
:100C9000E509981304C082E08093870773C178DC6C
:100CA00007E819E0F8011082C8E8D9E00F2EFAE051
:100CB000FF2EF02DF88261E086E591E051DDF8012C
:100CC000108284E1888361E085E691E049DDF801E6
:100CD000F0820F2EFEE1FF2EF02DF88261E08EE40F
:100CE00091E03EDD82E3F8018083F88261E080914B
:100CF000E4098ADC8CE3F8018083F88261E080916A
:100D0000E60982DC86E4F8018083F88261E0809164
:100D1000E5097ADC37DD36C180918E07873020F413
:100D20008F5F80938E0702C010928E07809103011F
:100D300090910401A0910501B09106010197A105D0
:100D4000B10511F410928707383071F4E0918E07E5
:100D5000F0E0E95FFE4F80818295807F82B95C9AE6
:100D600082E0809386070BC0E0918E07F0E0E95F98
:100D7000FE4F808182B95C9881E08093860708DC11
:100D80000F2EF7E8EF2EF9E0FF2EF02DCAE0F70165
:100D9000C08308E819E0F801C08361E083E791E0CF
:100DA000DFDCF701C0838EE1F801808361E08EE42F
:100DB00091E0D6DC80918C0781111BC082E3F701A2
:100DC0008083E8011EE1188361E08091E4091CDC66
:100DD0008CE3F7018083188361E08091E60914DCDD
:100DE00086E4F7018083188361E08091E5090CDCDB
:100DF0000AC082E3809387098EE18093880961E0CD
:100E00008EE791E0ADDC0F2EF7E8EF2EF9E0FF2E34
:100E1000F02D8AE0F7018083C8E8D9E018E2188352
:100E200061E084E891E09CDC81E4F7018083188331
:100E30008091860761E0805DE7DBA4DCA3C0809140
:100E40008E07882321F0815080938E0703C087E0AE
:100E500080938E078091030190910401A091050178
:100E6000B09106010197A105B10511F41092870711
:100E7000383071F4E0918E07F0E0E95FFE4F808139
:100E80008295807F82B95C9A82E0809386070BC04E
:100E9000E0918E07F0E0E95FFE4F808182B95C98B7
:100EA00081E08093860774DB07E819E00F2EFAE0F3
:100EB000FF2EF02DF801F082C8E8D9E0F88261E059
:100EC00085E791E04DDCF801F0820F2EF8E2FF2E6D
:100ED000F02DF88261E084E891E042DC81E4F801E1
:100EE0008083F8828091860761E0805D8DDB4ADC3B
:100EF00049C0909100018091E409981709F4BFCE90
:100F0000CECE5C982111BECDA7CDBEDA8093E70985
:100F1000813409F0BDCDB8CD3BDB0F2EF7E8EF2EC5
:100F2000F9E0FF2EF02D85E0F7018083C8E8D9E0D5
:100F30001AE0188361E08BE891E012DCF70110837E
:100F400014E118830F2EF0E0CF2EF1E0DF2EF02D0C
:100F500061E0F601808158DBF7011083188361E0BE
:100F6000F601818151DB8EE1F7018083188361E016
:100F7000F601828149DB06DC05C08091870781117B
:100F80005ECF76CFDF91CF911F910F91FF90EF90C1
:100F9000DF90CF9008951092E3095CDC83E090E04D
:100FA0003ED4FBCFAF92BF92CF92DF92EF92FF92EF
:100FB0000F93A12CB12CC12CD12CE12CF12C082F9A
:100FC00020E030E045E550E069E971E08BEC97E026
:100FD000AED10F91FF90EF90DF90CF90BF90AF9088
:100FE00008958FEF81B912B884B915B880EF87B929
:100FF0008FE088B982EF8AB98DE08BB993DA80E20D
:1010000040DA80E0D6DB81E0CDDF92D280E090E074
:10101000089531E1FC013083319722E2208331973A
:10102000A3E3A08331976083319770833197108257
:10103000319760E8608331971082319762E0608376
:10104000319763E06083319764E06083319765E0B6
:101050006083319766E06083319767E06083319702
:1010600068E06083319769E06083319760E1608375
:1010700031973083319732E13083319733E13083D8
:10108000319734E13083319735E13083319736E160
:101090003083319737E13083319738E130833197AE
:1010A00039E13083319730E23083319731E2308358
:1010B00031972083319723E2208331974083319702
:1010C0005083319726E22083319727E2208331979E
:1010D00028E22083319729E22083319720E320837F
:1010E000319721E3208386970895109289008CE739
:1010F000809388008BE080938100EFE6F0E08081B0
:1011000082608083A091E109B091E209CD91CDBFC9
:10111000DD91DEBFFF91EF91DF91CF91BF91AF9154
:101120009F918F917F916F915F914F913F912F91FF
:101130001F910F91FF90EF90DF90CF90BF90AF90F5
:101140009F908F907F906F905F904F903F902F90E7
:101150001F900F900FBE0F90089581E008950F9299
:101160000FB6F8940F921F9211242F923F924F9234
:101170005F926F927F928F929F92AF92BF92CF9227
:10118000DF92EF92FF920F931F932F933F934F9312
:101190005F936F937F938F939F93AF93BF93CF93FF
:1011A000DF93EF93FF93A091E109B091E2090DB6AF
:1011B0000D920EB60D9288D3A091E109B091E2098B
:1011C000CD91CDBFDD91DEBFFF91EF91DF91CF914A
:1011D000BF91AF919F918F917F916F915F914F914F
:1011E0003F912F911F910F91FF90EF90DF90CF9043
:1011F000BF90AF909F908F907F906F905F904F9037
:101200003F902F901F900F900FBE0F9008950F9258
:101210000FB6F8940F921F9211242F923F924F9283
:101220005F926F927F928F929F92AF92BF92CF9276
:10123000DF92EF92FF920F931F932F933F934F9361
:101240005F936F937F938F939F93AF93BF93CF934E
:10125000DF93EF93FF93A091E109B091E2090DB6FE
:101260000D920EB60D9293D12FD3A091E109B091BA
:10127000E209CD91CDBFDD91DEBFFF91EF91DF910E
:10128000CF91BF91AF919F918F917F916F915F911E
:101290004F913F912F911F910F91FF90EF90DF9011
:1012A000CF90BF90AF909F908F907F906F905F9006
:1012B0004F903F902F901F900F900FBE0F9008956A
:1012C000A6DF1895CF93DF93EC01E091E109F0914F
:1012D000E209938382838091910990919209C817C2
:1012E000D90760F46091E1097091E2098091A70942
:1012F0009091A8096E5F7F4F45D816C06091E109B3
:101300007091E2098091A9099091AA096E5F7F4FBF
:1013100039D880910F0190911001C817D90720F496
:10132000D0931001C0930F01DF91CF9108954F9298
:101330005F926F927F928F929F92AF92BF92CF9265
:10134000DF92EF92FF920F931F93CF93DF935C0195
:101350004B013A01290181E290E00E946201EC0117
:10136000892B09F4D3C0C114D10409F0CBC0C30147
:101370000E946201988F8F8B009721F4CE010E940A
:101380008801C4C0A30165EA70E01FD39301215016
:1013900031098F89988D3C01620E731E48E050E040
:1013A000B401CE01499618D318A2102F043008F0CA
:1013B00013E01E8B6E0182E0C80ED11CC6010E9494
:1013C0009701CE010C960E949701D987C88784E0C7
:1013D00090E0811B91099D878C87DB8BCA8BA201D2
:1013E000B501C30116DE99838883E114F10419F075
:1013F000F701D183C0830FB6F8940F9280919309BF
:101400008F5F809393098091E1099091E209892B84
:10141000A9F5D093E209C093E10980919309813045
:10142000E1F58DEB99E00E94890186EC99E00E943C
:1014300089018FEC99E00E94890188ED99E00E9472
:10144000890184EB99E00E9489018BEA99E00E946E
:1014500089018EE999E00E94890185E999E00E945D
:10146000890184EB99E09093AA098093A9098BEAFA
:1014700099E09093A8098093A7090FC080918E09E5
:1014800081110BC0E091E109F091E209868908170A
:1014900020F0D093E209C093E1098E8990919009E0
:1014A000981710F480939009909189099F5F909309
:1014B000890990918F09981710F480938F0990E013
:1014C0009C01220F331F220F331F220F331F820F65
:1014D000931FB6018354964F0E949B010F900FBE3D
:1014E00080918E09882351F0E091E109F091E209A1
:1014F0008689801728F433DE81E009C081E007C0C7
:1015000081E005C0D88ECF8AC6013CCF8FEFDF9136
:10151000CF911F910F91FF90EF90DF90CF90BF90F0
:10152000AF909F908F907F906F905F904F900895B5
:10153000AF92BF92CF92DF92EF92FF920F93A12CC6
:10154000B12CC12CD12CE12CF12C00E020E030E0BA
:1015500045E550E063EA71E08BE29CE0E8DE813033
:1015600041F4F89480938E09109292091092910997
:10157000BCDD0F91FF90EF90DF90CF90BF90AF90C8
:10158000089580918D098F5F80938D0908950F9341
:101590001F93CF93DF9380918D098111B2C0809109
:1015A00091099091920901969093920980939109E3
:1015B0008091910990919209892B99F58091A909BF
:1015C0009091AA092091A7093091A8093093AA09FE
:1015D0002093A9099093A8098093A70980918A096B
:1015E0008F5F80938A09E091A909F091AA0980810F
:1015F000811107C08FEF9FEF9093100180930F012F
:1016000010C0E091A909F091AA090580F681E02DAA
:101610000680F781E02D8281938190931001809361
:101620000F01209191093091920980910F019091C1
:1016300010012817390708F469C0E091A909F09151
:10164000AA098081882399F0E091A909F091AA095B
:101650000580F681E02DC681D7818A819B8120910A
:1016600091093091920928173907F8F419C08FEFC2
:101670009FEF9093100180930F0148C0E091A9095A
:10168000F091AA090580F681E02DC681D7818A8173
:101690009B8120919109309192092817390728F4EC
:1016A0009093100180930F0131C08E010E5F1F4F88
:1016B000C8010E94FD018C899D89892B21F0CE01F2
:1016C0000C960E94FD018E8990918F09981710F455
:1016D00080938F0990E09C01220F331F220F331F4C
:1016E000220F331F820F931FB8018354964F0E941D
:1016F0009B01E091A909F091AA0980818111BECFD7
:10170000B6CF80918C098F5F80938C09DF91CF9148
:101710001F910F910895CF92DF92EF92FF920F9356
:101720001F93CF93DF930FB6F8940F9280918D099A
:10173000815080938D0980918D09811162C08091C3
:101740009309811132C060C0D7011596ED91FC91CB
:101750001697C681D781CE010C960E94FD018E019D
:101760000E5F1F4FC8010E94FD018E8990918F0965
:10177000981710F480938F0990E09C01220F331F7B
:10178000220F331F220F331F820F931FB801835480
:10179000964F0E949B01E091E109F091E2099E8938
:1017A0008689981758F0DC2C09C0D12C0F2EFEE941
:1017B000EF2EF9E0FF2EF02DCC24C394F7018081A9
:1017C0008111C2CF80918C09882379F080918C0996
:1017D000882391F0DCDE80918C09815080938C0904
:1017E00080918C098111F6CF07C0F1E0DF1621F05E
:1017F00080918B09813039F410928B09B0DC81E043
:1018000003C080E001C080E00F900FBEDF91CF9158
:101810001F910F91FF90EF90DF90CF900895CF939D
:10182000DF93EC01892B99F0ACDE809191099091C6
:101830009209C80FD91F8091E1099091E20902969F
:101840000E94FD01CE013EDD66DF811101C087DC13
:10185000DF91CF9108950F2EF5E9EF2EF9E0FF2EDD
:10186000F02DCDEBD9E080919409882341F189DEF8
:10187000D7011C9150DF112311F10FB6F8940F928C
:10188000D7011596ED91FC91169706811781C80135
:1018900002960E94FD0180919309815080939309E3
:1018A000809194098150809394090F900FBEF801A4
:1018B0008789908D0E948801C8010E9488018881D3
:1018C000823088F24CDCCFCF80918D09811113C01A
:1018D00080918F0990E0FC01EE0FFF1FEE0FFF1FBC
:1018E000EE0FFF1F8E0F9F1FFC01E354F64F808108
:1018F000882329F01BC081E080938B090895809193
:101900008F09815080938F0980918F0990E0FC01AD
:10191000EE0FFF1FEE0FFF1FEE0FFF1F8E0F9F1F1B
:10192000FC01E354F64F8081882349F380918F09AD
:1019300090E09C01220F331F220F331F220F331F11
:10194000280F391FD901A354B64F1196ED91FC9180
:1019500012970280F381E02D1296FC93EE9311977B
:101960002054364FE217F30729F422813381FD0119
:1019700032832183FC01EE0FFF1FEE0FFF1FEE0FDE
:10198000FF1F8E0F9F1FFC01E354F64F0180F28171
:10199000E02D868197819093E2098093E109089573
:1019A000991B79E004C0991F961708F0961B881FB1
:1019B0007A95C9F780950895EE0FFF1F0024001C4B
:1019C0000BBE0790F691E02D0994DC0101C06D93E8
:1019D00041505040E0F70895FB01DC014150504078
:1019E00048F001900D920020C9F701C01D924150AE
:0A19F0005040E0F70895F894FFCF8F
:1019FA003132330004000001030206040C0809FF17
:101A0A00FF4E657720436F64653A004E6F004D6F55
:101A1A0074696F6E004D656E750041202D20656EEC
:101A2A0074657220636F64650043202D20636865C6
:101A3A00636B20636F646500434F44453F00456E06
:101A4A007472793A200057524F4E472050415353EF
:101A5A00574F5244005245535441525420424F4129
:101A6A00524400554E4C4F434B494E472100506853
:101A7A006F6E6500526F6F6D3A2000437572726522
:101A8A006E7420436F64653A004D6F746F725461CF
:081A9A00736B0049444C450048
:00000001FF
