:100000003CC1000058C1000056C1000054C10000AE
:1000100052C1000050C100004EC100004CC10000A0
:100020004AC1000048C1000046C1000044C10000B0
:1000300042C10000F0C700003EC100003CC100000A
:100040003AC1000038C1000036C1000034C10000D0
:1000500032C1000030C100002EC100002CC10000E0
:100060002AC1000028C1000026C1000024C10000F0
:1000700022C1000020C100001EC100001CC1000000
:100080001AC1000018C1000016C100003E0445045A
:100090004E045C04650481046E040000000000004E
:1000A000005F00000007000700147F147F14242A5B
:1000B0007F2A122313086462364955225000050333
:1000C0000000001C2241000041221C0014083E08D0
:1000D0001408083E08080050300000080808080806
:1000E000006060000020100804023E5149453E00B7
:1000F000427F400042615149462141454B3118142D
:10010000127F1027454545393C4A4949300171095C
:1001100005033649494936064949291E0036360045
:100120000000563600000814224100141414141460
:1001300000412214080201510906324979413E7EEC
:100140001111117E7F494949363E414141227F418B
:1001500041221C7F494949417F090909013E414922
:10016000497A7F0808087F00417F41002040413FD5
:10017000017F081422417F404040407F020C027FF3
:100180007F0408107F3E4141413E7F090909063E38
:100190004151215E7F0919294646494949310101EA
:1001A0007F01013F4040403F1F2040201F3F40381B
:1001B000403F6314081463070870080761514945FC
:1001C00043007F41410002040810200041417F00AC
:1001D00004020102044040404040000102040020AB
:1001E000545454787F484444383844444420384474
:1001F00044487F3854545418087E0901020C525266
:10020000523E7F0804047800447D40002040443D75
:10021000007F1028440000417F40007C04180478CF
:100220007C0804047838444444387C1414140808C6
:100230001414187C7C080404084854545420043FC7
:100240004440203C4040207C1C2040201C3C40304E
:10025000403C44281028440C5050503C4464544CBA
:1002600044000836410000007F00000041360800CD
:100270001008081008000000000011241FBECFEF76
:10028000D0E4DEBFCDBF11E0A0E0B1E0E4E3F7E1F0
:1002900000E00BBF02C007900D92A436B107D9F75A
:1002A00029E0A4E6B1E001C01D92A63AB207E1F749
:1002B00043D50C94980BA4CECF93DF93EC01FED7DB
:1002C0002091640130916501C9018C0F9D1F8C3D07
:1002D00045E0940758F42817390758F4E901CA593A
:1002E000DE4F909365018093640105C0C0E0D0E0CB
:1002F00002C0C0E0D0E00E94280ACE01DF91CF9179
:1003000008950895FC010396928381832FEF3FEFB8
:10031000348323839683858390878783108208950F
:10032000FC01118610860895CF93DF93FC01DB0159
:1003300021813281E9018A819B8113969C938E935E
:1003400012978181928115969C938E9314978A813E
:100350009B81EC017D836C83E9017B836A837283DB
:1003600061831996FC93EE93189780818F5F808349
:10037000DF91CF910895CF93DF93EB0148815981AD
:100380004F3F2FEF520731F4DC011796ED91FC91AE
:10039000189717C0FC013396DC0115962D913C91FE
:1003A0001697D9012D913C914217530750F00280C6
:1003B000F381E02DA281B3812D913C914217530727
:1003C000B0F7A281B381BB83AA831596DC93CE9349
:1003D0001497FD83EC83D383C28399878887FC01BC
:1003E00020812F5F2083DF91CF910895FC01A281AE
:1003F000B3818481958115969C938E931497A481E3
:10040000B5818281938113969C938E931297A085D8
:10041000B18511968D919C911297E817F90731F4E7
:100420008481958112969C938E93119711861086E4
:100430008C9181508C9308952898662311F02A9A04
:1004400015C02A9813C0AC01022E02C055954795DD
:100450000A94E2F740FF02C02B9A01C02B982C9A15
:100460002C982150310978F7289A089527E030E038
:1004700090E0E9CF60E0E0CF08958FEE88B900000A
:10048000309B29C0319B29C0329B29C0339B29C096
:100490008FED88B90000309B26C0319B26C0329B6F
:1004A00026C0339B26C08FEB88B90000309B23C049
:1004B000319B23C0329B23C0339B23C08FE788B975
:1004C0000000309B20C0319B20C0329B20C0339B5A
:1004D00020C080E0089581E3089584E3089587E3D0
:1004E00008958AE2089582E3089585E3089588E3F4
:1004F000089580E3089583E3089586E3089589E3EA
:10050000089583E2089581E4089582E4089583E4E0
:10051000089584E40895CF93DF93209A219A229A34
:10052000239A249A299A289A83EC99E00197F1F763
:1005300000C0000029988BE594E40197F1F700C012
:100540000000299A289881E295DF83E193DF86E015
:1005500091DF82EC8FDF80E28DDF89E08BDF80E846
:1005600089DF80E487DFC8EFD1E061E080E064DF0D
:100570002197D9F788E07EDF8CE07CDFDF91CF9197
:10058000089580E877DF80E475DF109241091092CA
:100590004209E9E4F7E081E499E01192E817F907EC
:1005A000E1F70895262F26952695269590E034E5C7
:1005B000239F800D911D1124442379F0FC01E75BFA
:1005C000F84F677081E090E002C0880F991F6A952C
:1005D000E2F79081892B80830895FC01E75BF84F57
:1005E000677081E090E002C0880F991F6A95E2F77A
:1005F000809590818923808308955F926F927F9286
:100600008F929F92AF92BF92CF92DF92EF92FF9222
:100610000F931F93CF93DF93562E262F30E049017F
:10062000880C991C880C991C820E931E18141904AE
:100630000CF05BC08901000F111F000F111F000F8C
:10064000111F021B130B612CA82EB12CC501809722
:100650005C01AA0CBB1CAA0CBB1CA80EB91E0F2E59
:10066000F2E4CF2EF9E0DF2EF02D0F2EF1E4EF2E85
:10067000F9E0FF2EF02D2BC0FE01249130E0872DF4
:10068000652D0E946D0B02C0359527958A95E2F77E
:1006900020FF09C0F6016081670DF701808141E00C
:1006A000860D80DF08C0F6016081670DF70180814B
:1006B00040E0860D77DF7394872D90E080179107D7
:1006C000DCF26394862D90E08815990574F4101679
:1006D0001106BCF7862D652D0E946D0BE501C80F34
:1006E000D11DC656DF4F712CC7CF8091410991E0D3
:1006F000980F852D880F880F850D890F843518F484
:10070000809341090EC010924109E2E4F9E0808132
:1007100091E0980F852D880F880F880F8519890F14
:10072000808380914209803320F010924109109219
:100730004209DF91CF911F910F91FF90EF90DF90D1
:10074000CF90BF90AF909F908F907F906F905F9071
:1007500008951F93CF93DF93EC018881882339F0AC
:10076000162F2196612F49DF89918111FBCFDF91EF
:10077000CF911F9108950F931F93CF93DF9380E83C
:1007800079DE80E477DEC9E4D7E001E419E061E0D6
:10079000899152DEC017D107D1F7DF91CF911F9118
:1007A0000F910895813081F0E1ECF0E08081886163
:1007B0008083E2ECF0E080818660808385E0809336
:1007C000C4001092C5000895E9ECF0E080818861D2
:1007D0008083EAECF0E080818660808385E080930E
:1007E000CC001092CD000895813029F48091C8008A
:1007F000882374F008958091C00088238CF4A6ECBF
:10080000B0E0E0ECF0E08C9180818823E4F308957F
:10081000AEECB0E0E8ECF0E08C9180818823E4F36A
:100820000895813041F0E0ECF0E080818823ECF71E
:100830008091C6000895E8ECF0E080818823ECF711
:100840008091CE000895DF92EF92FF920F931F9355
:10085000CF93DF9389B18095382F387089B1809517
:10086000282F2470E0919D098E2F90E0873091050C
:1008700008F057C0FC01EA5BFF4F3BC7243009F08A
:1008800012C281E080939D0912C280914507813098
:1008900009F00DC282E080939D0920C28091470734
:1008A000893C30F083E080939D091092470710C285
:1008B0008F5F8093470712C280914407813009F00F
:1008C00007C284E080939D09F8C18091430782307C
:1008D00009F0F3C186E080939D0913C18091470719
:1008E000893C30F085E080939D0910924707EBC169
:1008F0008F5F8093470780914307882309F419C1CC
:1009000000C180914707893C40F010929D091092E8
:100910004707109243075C9807C08F5F8093470793
:10092000D2C110929D09BFC12CDE01E419E083E21F
:10093000F8018083C2E4D9E0188262E08AE091E0A5
:1009400008DF8FE0F801808384E1888362E08DE036
:1009500091E0FFDE10DFC2C1C1E0C093460780E036
:1009600060DF80939F0980E03FDFC09345070DC0A3
:100970001092460782DD80939F09882321F081E051
:100980008093450702C010924507FBDD01E419E0A2
:100990000F2EFAE0FF2EF02DF801F082C2E4D9E02C
:1009A000188261E084E191E0D4DEF801F0820F2E3C
:1009B000FEE1FF2EF02DF88261E08EE191E0C9DECC
:1009C00081E4F8018083F88261E080919F0915DE5F
:1009D000D2DE84C1C1E0C093460780E022DF80936D
:1009E000A40980E001DFC093440711C0809146074D
:1009F000813011F01092460740DD8093A4098823CE
:100A000021F081E08093440702C010924407B9DDD1
:100A100001E419E00F2EFAE0FF2EF02DF801F0822C
:100A2000C2E4D9E0188261E084E191E092DEF8014D
:100A3000F0820F2EFEE1FF2EF02DF88261E08EE1B4
:100A400091E087DE81E4F8018083F88261E08091A3
:100A50009F09D3DD86E4F8018083F88261E080910C
:100A6000A409CBDD88DE3AC18091A409823321F04C
:100A700080914607882321F082E08093430734C0A9
:100A800080DD01E419E0F8011082C2E4D9E00F2E04
:100A9000FAE0FF2EF02DF88261E086E291E059DE67
:100AA000F801108284E1888361E085E391E051DE02
:100AB000F801F0820F2EFEE1FF2EF02DF88261E0AA
:100AC0008EE191E046DE81E4F8018083F88261E006
:100AD00080919F0992DD86E4F8018083F88261E0CD
:100AE0008091A4098ADD47DE80E094E0A0E0B0E0D8
:100AF0008093A0099093A109A093A209B093A309A0
:100B0000EDC080914807873020F48F5F80934807BD
:100B100002C0109248078091A0099091A109A0916C
:100B2000A209B091A3090197A105B10511F4109292
:100B30004307383071F4E0914807F0E0E050FF4F90
:100B400080818295807F82B95C9A82E0809342079F
:100B50000BC0E0914807F0E0E050FF4F808182B980
:100B60005C9881E0809342070CDD01E419E00F2ED0
:100B7000FAE0FF2EF02DF801F082C2E4D9E084E122
:100B8000888361E083E491E0E4DDF801F0820F2ED8
:100B9000FEE1EF2EF02DE88261E08EE191E0D9DDFB
:100BA0000F2EF1E4DF2EF02DF801D082E88261E013
:100BB00080919F0922DD86E4F8018083E88261E06C
:100BC0008091A4091ADDF801F0820F2EF8E2FF2EC1
:100BD000F02DF88261E08EE491E0BBDDF801D08277
:100BE000F8828091420761E0805D07DDC4DD76C058
:100BF00080914807882321F081508093480703C0E3
:100C000087E0809348078091A0099091A109A09165
:100C1000A209B091A3090197A105B10511F41092A1
:100C20004307383071F4E0914807F0E0E050FF4F9F
:100C300080818295807F82B95C9A82E080934207AE
:100C40000BC0E0914807F0E0E050FF4F808182B98F
:100C50005C9881E08093420794DC01E419E00F2E58
:100C6000FAE0FF2EF02DF801F082C2E4D9E084E131
:100C7000888361E085E491E06CDDF801F0820F2E5D
:100C8000F8E2FF2EF02DF88261E08EE491E061DD64
:100C900081E4F8018083F8828091420761E0805D01
:100CA000ACDC69DD1BC05C98211154CE3DCE809137
:100CB000C00088230CF450CE5BCE80919F09813315
:100CC00009F0D6CED1CE80914307811191CFA9CF23
:100CD0008091C00088230CF089CE7CCEDF91CF912B
:100CE0001F910F91FF90EF90DF90089510929D0952
:100CF000AADD83E090E030D4FBCFAF92BF92CF92D9
:100D0000DF92EF92FF920F93A12CB12CC12CD12C2A
:100D1000E12CF12C082F20E030E045E550E065E5BE
:100D200071E086E796E0AED10F91FF90EF90DF90F3
:100D3000CF90BF90AF9008958FEF81B912B884B96A
:100D400015B880EF87B98FE088B982EF8AB98DE056
:100D50008BB9E1DB80E28EDB80E024DD81E0CDDF5A
:100D600084D280E090E0089531E1FC013083319736
:100D700022E220833197A3E3A083319760833197E8
:100D8000708331971082319760E8608331971082C9
:100D9000319762E06083319763E06083319764E06C
:100DA0006083319765E06083319766E060833197B7
:100DB00067E06083319768E06083319769E0608322
:100DC000319760E1608331973083319732E130832E
:100DD000319733E13083319734E13083319735E116
:100DE0003083319736E13083319737E13083319763
:100DF00038E13083319739E13083319730E2308305
:100E0000319731E2308331972083319723E2208379
:100E10003197408331975083319726E22083319771
:100E200027E22083319728E22083319729E220832B
:100E3000319720E32083319721E32083869708951B
:100E4000109289008CE7809388008BE0809381006A
:100E5000EFE6F0E0808182608083A0919B09B091F1
:100E60009C09CD91CDBFDD91DEBFFF91EF91DF9168
:100E7000CF91BF91AF919F918F917F916F915F9132
:100E80004F913F912F911F910F91FF90EF90DF9025
:100E9000CF90BF90AF909F908F907F906F905F901A
:100EA0004F903F902F901F900F900FBE0F9008957E
:100EB00081E008950F920FB6F8940F921F921124BB
:100EC0002F923F924F925F926F927F928F929F925A
:100ED000AF92BF92CF92DF92EF92FF920F931F9348
:100EE0002F933F934F935F936F937F938F939F9332
:100EF000AF93BF93CF93DF93EF93FF93A0919B09A1
:100F0000B0919C090DB60D920EB60D927AD3A091B8
:100F10009B09B0919C09CD91CDBFDD91DEBFFF91C2
:100F2000EF91DF91CF91BF91AF919F918F917F9181
:100F30006F915F914F913F912F911F910F91FF9072
:100F4000EF90DF90CF90BF90AF909F908F907F9069
:100F50006F905F904F903F902F901F900F900FBE1B
:100F60000F9008950F920FB6F8940F921F921124CC
:100F70002F923F924F925F926F927F928F929F92A9
:100F8000AF92BF92CF92DF92EF92FF920F931F9397
:100F90002F933F934F935F936F937F938F939F9381
:100FA000AF93BF93CF93DF93EF93FF93A0919B09F0
:100FB000B0919C090DB60D920EB60D9285D121D33C
:100FC000A0919B09B0919C09CD91CDBFDD91DEBF71
:100FD000FF91EF91DF91CF91BF91AF919F918F9151
:100FE0007F916F915F914F913F912F911F910F9141
:100FF000FF90EF90DF90CF90BF90AF909F908F9039
:101000007F906F905F904F903F902F901F900F9028
:101010000FBE0F900895A6DF1895CF93DF93EC01D4
:10102000E0919B09F0919C099383828380914B0905
:1010300090914C09C817D90760F460919B09709191
:101040009C0980916109909162096E5F7F4F93D9ED
:1010500016C060919B0970919C09809163099091E1
:1010600064096E5F7F4F87D98091080190910901D3
:10107000C817D90720F4D0930901C0930801DF9164
:10108000CF9108954F925F926F927F928F929F922D
:10109000AF92BF92CF92DF92EF92FF920F931F9386
:1010A000CF93DF935C014B013A01290181E290E08B
:1010B00003D9EC01892B09F4C6C0C114D10409F08D
:1010C000BEC0C301F9D8988F8F8B009719F4CE0159
:1010D00018D9B9C0A30165EA70E014D39301215077
:1010E00031098F89988D3C01620E731E48E050E0F3
:1010F000B401CE0149960DD318A2102F043008F088
:1011000013E01E8B6E0182E0C80ED11CC60108D907
:10111000CE010C9605D9D987C88784E090E0811B61
:1011200091099D878C87DB8BCA8BA201B501C30116
:101130001BDE99838883E114F10419F0F701D18350
:10114000C0830FB6F8940F9280914D098F5F809302
:101150004D0980919B0990919C09892B69F5D09349
:101160009C09C0939B0980914D098130A1F587E7C7
:1011700099E0C8D880E899E0C5D889E899E0C2D854
:1011800082E999E0BFD88EE699E0BCD885E699E07F
:10119000B9D888E599E0B6D88FE499E0B3D88EE65F
:1011A00099E0909364098093630985E699E09093B0
:1011B0006209809361090FC08091480981110BC0B9
:1011C000E0919B09F0919C098689081720F0D09343
:1011D0009C09C0939B098E8990914A09981710F435
:1011E00080934A09909143099F5F9093430990919E
:1011F0004909981710F48093490990E09C01220F47
:10120000331F220F331F220F331F820F931FB6018C
:101210008958964F89D80F900FBE8091480988232E
:1012200051F0E0919B09F0919C098689801728F480
:1012300041DE81E009C081E007C081E005C0D88EB1
:10124000CF8AC60147CF8FEFDF91CF911F910F91CA
:10125000FF90EF90DF90CF90BF90AF909F908F90D6
:101260007F906F905F904F900895AF92BF92CF9212
:10127000DF92EF92FF920F93A12CB12CC12CD12CB5
:10128000E12CF12C00E020E030E045E550E06FE596
:1012900071E088EC9AE0F6DE813041F4F8948093B6
:1012A000480910924C0910924B09CADD0F91FF902A
:1012B000EF90DF90CF90BF90AF9008958091470955
:1012C0008F5F8093470908950F931F93CF93DF9308
:1012D000809147098111B2C080914B0990914C09CE
:1012E000019690934C0980934B0980914B09909102
:1012F0004C09892B99F5809163099091640920919B
:1013000061093091620930936409209363099093D5
:10131000620980936109809144098F5F8093440939
:10132000E0916309F09164098081811107C08FEF1A
:101330009FEF909309018093080110C0E091630929
:10134000F09164090580F681E02D0680F781E02D9B
:1013500082819381909309018093080120914B0928
:1013600030914C09809108019091090128173907A3
:1013700008F469C0E0916309F091640980818823D1
:1013800099F0E0916309F09164090580F681E02D00
:10139000C681D7818A819B8120914B0930914C096C
:1013A00028173907F8F419C08FEF9FEF90930901C0
:1013B0008093080148C0E0916309F09164090580B9
:1013C000F681E02DC681D7818A819B8120914B09CE
:1013D00030914C092817390728F49093090180931C
:1013E000080131C08E010E5F1F4FC8010E94F60137
:1013F0008C899D89892B21F0CE010C960E94F601E3
:101400008E8990914909981710F48093490990E0CA
:101410009C01220F331F220F331F220F331F820F15
:10142000931FB8018958964F0E949401E091630977
:10143000F091640980818111BECFB6CF80914609B9
:101440008F5F80934609DF91CF911F910F9108958F
:10145000CF92DF92EF92FF920F931F93CF93DF9380
:101460000FB6F8940F9280914709815080934709F5
:1014700080914709811162C080914D09811132C06C
:1014800060C0D7011596ED91FC911697C681D78162
:10149000CE010C960E94F6018E010E5F1F4FC8010F
:1014A0000E94F6018E8990914909981710F4809353
:1014B000490990E09C01220F331F220F331F220F96
:1014C000331F820F931FB8018958964F0E949401D1
:1014D000E0919B09F0919C099E898689981758F0A4
:1014E000DC2C09C0D12C0F2EF8E5EF2EF9E0FF2EF1
:1014F000F02DCC24C394F70180818111C2CF80915B
:101500004609882379F080914609882391F0DCDE32
:101510008091460981508093460980914609811146
:10152000F6CF07C0F1E0DF1621F080914509813048
:1015300039F410924509BEDC81E003C080E001C0AF
:1015400080E00F900FBEDF91CF911F910F91FF9020
:10155000EF90DF90CF900895CF93DF93EC01892B2C
:1015600099F0ACDE80914B0990914C09C80FD91FBE
:1015700080919B0990919C0902960E94F601CE01F0
:101580004CDD66DF811101C095DCDF91CF910895BC
:101590000F2EFFE4EF2EF9E0FF2EF02DC7E7D9E084
:1015A00080914E09882341F189DED7011C9150DFDB
:1015B000112311F10FB6F8940F92D7011596ED9102
:1015C000FC91169706811781C80102960E94F601C8
:1015D00080914D09815080934D0980914E09815031
:1015E00080934E090F900FBEF8018789908D0E945D
:1015F0008101C8010E9481018881823088F25ADC11
:10160000CFCF80914709811113C08091490990E0A3
:10161000FC01EE0FFF1FEE0FFF1FEE0FFF1F8E0FDF
:101620009F1FFC01E958F64F8081882329F01BC0D9
:1016300081E0809345090895809149098150809304
:1016400049098091490990E0FC01EE0FFF1FEE0F60
:10165000FF1FEE0FFF1F8E0F9F1FFC01E958F64F73
:101660008081882349F38091490990E09C01220FF1
:10167000331F220F331F220F331F280F391FD901A9
:10168000A958B64F1196ED91FC9112970280F38103
:10169000E02D1296FC93EE9311972658364FE217E1
:1016A000F30729F422813381FD0132832183FC0178
:1016B000EE0FFF1FEE0FFF1FEE0FFF1F8E0F9F1F7E
:1016C000FC01E958F64F0180F281E02D8681978177
:1016D00090939C0980939B090895991B79E004C01D
:1016E000991F961708F0961B881F7A95C9F7809561
:1016F0000895EE0FFF1F0024001C0BBE0790F6910B
:10170000E02D0994DC0101C06D9341505040E0F799
:101710000895FB01DC014150504048F001900D92CA
:101720000020C9F701C01D9241505040E0F70895D4
:04173000F894FFCF5B
:1017340001030206040C0809FFFF4E6F004D6F748D
:10174400696F6E0050415353434F44453F00456E0B
:101754007472793A200057524F4E472050415353E8
:10176400574F5244005245535441525420424F4122
:10177400524400554E4C4F434B494E472100526F43
:101784006F6D3A20004D6F746F725461736B004932
:04179400444C45007C
:00000001FF
