S00C00006C6162342E73726563B5
S113000040C100005CC100005AC1000058C100009A
S113001056C1000054C1000052C1000050C100008C
S11300204EC100004CC100004AC1000048C100009C
S113003046C100000C94B80842C1000040C1000051
S11300403EC100003CC100003AC1000038C10000BC
S113005036C1000034C1000032C1000030C10000CC
S11300602EC100002CC100002AC1000028C10000DC
S113007026C1000024C1000022C1000020C10000EC
S11300801EC100001CC100001AC1000043044A0440
S11300905F046D04760484049204A004A904C504D6
S11300A0B204000000000000005F00000007000729
S11300B000147F147F14242A7F2A122313086462F5
S11300C036495522500005030000001C224100005F
S11300D041221C0014083E081408083E0808005079
S11300E030000008080808080060600000201008BC
S11300F004023E5149453E00427F4000426151495D
S1130100462141454B311814127F10274545453986
S11301103C4A4949300171090503364949493606C3
S11301204949291E003636000000563600000814DE
S11301302241001414141414004122140802015121
S11301400906324979413E7E1111117E7F494949A0
S1130150363E414141227F4141221C7F4949494168
S11301607F090909013E4149497A7F0808087F004F
S1130170417F41002040413F017F081422417F40DC
S11301804040407F020C027F7F0408107F3E4141C3
S1130190413E7F090909063E4151215E7F09192923
S11301A046464949493101017F01013F4040403FF2
S11301B01F2040201F3F4038403F6314081463074A
S11301C0087008076151494543007F41410002041A
S11301D00810200041417F00040201020440404015
S11301E04040000102040020545454787F484444A1
S11301F0383844444420384444487F3854545418CC
S1130200087E0901020C5252523E7F080404780011
S1130210447D40002040443D007F102844000041BC
S11302207F40007C041804787C0804047838444433
S113023044387C14141408081414187C7C0804042E
S1130240084854545420043F4440203C4040207CFF
S11302501C2040201C3C4030403C44281028440CC6
S11302605050503C4464544C440008364100000053
S11302707F00000041360800100808100800000044
S1130280000011241FBECFEFD0E4DEBFCDBF11E0CC
S1130290A0E0B1E0E0E9F8E100E00BBF02C00790A4
S11302A00D92A63AB107D9F729E0A6EAB1E001C058
S11302B01D92A83EB207E1F7ECD50C94460CA0CEF3
S11302C0CF93DF93EC010E940C0A2091A601309198
S11302D0A701C9018C0F9D1F8C3D45E0940758F47C
S11302E02817390758F4E901C855DE4F9093A70140
S11302F08093A60105C0C0E0D0E002C0C0E0D0E019
S11303000E94D60ACE01DF91CF9108950895FC0191
S11303100396928381832FEF3FEF34832383968365
S113032085839087878310820895FC011186108647
S11303300895CF93DF93FC01DB0121813281E90130
S11303408A819B8113969C938E93129781819281CB
S113035015969C938E9314978A819B81EC017D83DF
S11303606C83E9017B836A83728361831996FC93AE
S1130370EE93189780818F5F8083DF91CF910895EA
S1130380CF93DF93EB01488159814F3F2FEF520701
S113039031F4DC011796ED91FC91189717C0FC011C
S11303A03396DC0115962D913C911697D9012D9128
S11303B03C914217530750F00280F381E02DA28153
S11303C0B3812D913C9142175307B0F7A281B381B9
S11303D0BB83AA831596DC93CE931497FD83EC8399
S11303E0D383C28399878887FC0120812F5F208370
S11303F0DF91CF910895FC01A281B381848195811D
S113040015969C938E931497A481B58182819381D0
S113041013969C938E931297A085B18511968D9116
S11304209C911297E817F90731F48481958112960B
S11304309C938E931197118610868C9181508C9386
S113044008952898662311F02A9A15C02A9813C093
S1130450AC01022E02C0559547950A94E2F740FF7D
S113046002C02B9A01C02B982C9A2C982150310948
S113047078F7289A089527E030E090E0E9CF60E02B
S1130480E0CF08958FEE88B90000309B29C0319BDE
S113049029C0329B29C0339B29C08FED88B9000045
S11304A0309B26C0319B26C0329B26C0339B26C07E
S11304B08FEB88B90000309B23C0319B23C0329B53
S11304C023C0339B23C08FE788B90000309B20C032
S11304D0319B20C0329B20C0339B20C080E0089514
S11304E081E3089584E3089587E308958AE20895F3
S11304F082E3089585E3089588E3089580E30895E9
S113050083E3089586E3089589E3089583E20895D3
S113051081E4089582E4089583E4089584E40895C9
S1130520CF93DF93209A219A229A239A249A299A84
S1130530289A83EC99E00197F1F700C0000029980C
S11305408BE594E40197F1F700C00000299A2898FC
S113055081E295DF83E193DF86E091DF82EC8FDF38
S113056080E28DDF89E08BDF80E889DF80E487DF4C
S1130570C8EFD1E061E080E064DF2197D9F788E03B
S11305807EDF8CE07CDFDF91CF91089580E877DF18
S113059080E475DF1092840910928509ECE8F7E095
S11305A084E899E01192E817F907E1F70895262FF6
S11305B026952695269590E034E5239F800D911D80
S11305C01124442379F0FC01E457F84F677081E06B
S11305D090E002C0880F991F6A95E2F79081892BF9
S11305E080830895FC01E457F84F677081E090E040
S11305F002C0880F991F6A95E2F78095908189233C
S1130600808308955F926F927F928F929F92AF92B0
S1130610BF92CF92DF92EF92FF920F931F93CF93EB
S1130620DF93562E262F30E04901880C991C880C44
S1130630991C820E931E181419040CF05BC08901D6
S1130640000F111F000F111F000F111F021B130BAE
S1130650612CA82EB12CC50180975C01AA0CBB1C8F
S1130660AA0CBB1CA80EB91E0F2EF5E8CF2EF9E07C
S1130670DF2EF02D0F2EF4E8EF2EF9E0FF2EF02DF3
S11306802BC0FE01249130E0872D652D0E941B0CA8
S113069002C0359527958A95E2F720FF09C0F60137
S11306A06081670DF701808141E0860D80DF08C01D
S11306B0F6016081670DF701808140E0860D77DFE8
S11306C07394872D90E080179107DCF26394862D54
S11306D090E08815990574F410161106BCF7862D60
S11306E0652D0E941B0CE501C80FD11DCE55DF4FAF
S11306F0712CC7CF8091840991E0980F852D880FC4
S1130700880F850D890F843518F4809384090EC0F1
S113071010928409E5E8F9E0808191E0980F852D35
S1130720880F880F880F8519890F80838091850928
S1130730803320F01092840910928509DF91CF91C3
S11307401F910F91FF90EF90DF90CF90BF90AF90EB
S11307509F908F907F906F905F9008951F93CF9399
S1130760DF93EC018881882339F0162F2196612FBD
S113077049DF89918111FBCFDF91CF911F910895BA
S11307800F931F93CF93DF9380E879DE80E477DEC5
S1130790CCE8D7E004E819E061E0899152DEC017A3
S11307A0D107D1F7DF91CF911F910F910895813037
S11307B081F0E1ECF0E0808188618083E2ECF0E09C
S11307C080818660808385E08093C4001092C50098
S11307D00895E9ECF0E0808188618083EAECF0E040
S11307E080818660808385E08093CC001092CD0068
S11307F00895813029F48091C800882374F0089505
S11308008091C00088238CF4A6ECB0E0E0ECF0E02A
S11308108C9180818823E4F30895AEECB0E0E8EC99
S1130820F0E08C9180818823E4F30895813041F0D5
S1130830E0ECF0E080818823ECF78091C600089515
S1130840E8ECF0E080818823ECF78091CE000895F5
S1130850DF92EF92FF920F931F93CF93DF9389B1AF
S11308608095382F387089B18095282F2470E091B5
S1130870E0098E2F90E08B30910508F096C0FC01C2
S1130880EA5BFF4FE4C7243009F0C6C281E08093DD
S1130890E009B4C280918807813021F482E080931A
S11308A0E009C9C2823021F485E08093E00993C253
S11308B0833009F0A3C284E08093E00969C2809187
S11308C08A07853630F083E08093E00910928A0726
S11308D0A7C28F5F80938A07AEC280918707813059
S11308E009F09EC286E08093E009A5C280918A0740
S11308F0853630F081E08093E00910928A077EC249
S11309008F5F80938A0744C280918A07853630F0CE
S113091081E08093E00910928A0770C28F5F809310
S11309208A0759C280918A07893C30F087E0809316
S1130930E00910928A075CC28F5F80938A077BC2AA
S113094080918607813009F053C288E08093E009E2
S11309505CC280918507823009F057C28AE0809397
S1130960E00944C180918A07893C30F089E0809392
S1130970E00910928A075AC28F5F80938A07809198
S11309808507882309F44AC131C180918A07893CCB
S113099040F01092E00910928A07109285075C9843
S11309A007C08F5F80938A0741C21092E00934C266
S11309B0EDDD04E819E083E2F8018083C5E8D9E0BD
S11309C0188262E08CE091E0C9DE8FE0F801808358
S11309D084E1888362E08FE091E0C0DED1DE2BC247
S11309E081E0809388070EC0823421F482E08093F2
S11309F0880708C0833421F483E08093880702C009
S1130A0010928807C3DD04E819E0F8011082C5E8F4
S1130A10D9E08AE0888361E086E191E09FDEF80115
S1130A20108284E1888361E083E291E097DEF8013B
S1130A3010828EE1888361E081E391E08FDEA0DEA5
S1130A40FAC1C1E0C093890780E0F0DE8093E10938
S1130A5080E0CFDEC09387070DC01092890712DDB6
S1130A608093E109882321F081E08093870702C005
S1130A70109287078BDD0F2EF4E8EF2EF9E0FF2E9E
S1130A80F02D1EE1F7011083C5E8D9E0188261E07A
S1130A908AE491E063DE8AE0F7018083188361E0F1
S1130AA08EE391E05BDE81E4F7018083188361E0EB
S1130AB08091E109A7DD64DEBEC1C1E0C09389076E
S1130AC080E0B4DE8093E60980E093DEC09386077D
S1130AD011C080918907813011F010928907D2DC0E
S1130AE08093E609882321F081E08093860702C081
S1130AF0109286074BDD04E819E00F2EFAE0FF2E72
S1130B00F02DF801F082C5E8D9E0188261E086E4AE
S1130B1091E024DEF801F0820F2EFEE1FF2EF02D8D
S1130B20F88261E08EE391E019DE81E4F8018083CC
S1130B30F88261E08091E10965DD86E4F801808353
S1130B40F88261E08091E6095DDD1ADE74C190915E
S1130B50E60980910001981721F080918907882384
S1130B6021F082E08093850734C010DD04E819E0A9
S1130B70F8011082C5E8D9E00F2EFAE0FF2EF02D1F
S1130B80F88261E080E591E0E9DDF801108284E11A
S1130B90888361E08FE591E0E1DDF801F0820F2EBA
S1130BA0FEE1FF2EF02DF88261E08EE391E0D6DDC8
S1130BB081E4F8018083F88261E08091E10922DD1B
S1130BC086E4F8018083F88261E08091E6091ADD09
S1130BD0D7DD80E094E0A0E0B0E08093E209909358
S1130BE0E309A093E409B093E50925C180918B073B
S1130BF0873020F48F5F80938B0702C010928B079D
S1130C008091E2099091E309A091E409B091E5098A
S1130C100197A105B10511F410928507383071F4DC
S1130C20E0918B07F0E0EE5FFE4F80818295807F3C
S1130C3082B95C9A82E0809384070BC0E0918B07B1
S1130C40F0E0EE5FFE4F808182B95C9881E0809392
S1130C5084079CDC04E819E00F2EFAE0FF2EF02D47
S1130C60F801F082C5E8D9E084E1888361E08DE68B
S1130C7091E074DDF801F0820F2EFEE1EF2EF02DED
S1130C80E88261E08EE391E069DD0F2EF1E4DF2E6E
S1130C90F02DF801D082E88261E08091E109B2DCB4
S1130CA086E4F8018083E88261E08091E609AADCA9
S1130CB0F801F0820F2EF8E2FF2EF02DF88261E0A9
S1130CC088E791E04BDDF801D082F88280918407B7
S1130CD061E0805D97DC54DDAEC080918B07882392
S1130CE021F0815080938B0703C087E080938B07AA
S1130CF08091E2099091E309A091E409B091E5099A
S1130D000197A105B10511F410928507383071F4EB
S1130D10E0918B07F0E0EE5FFE4F80818295807F4B
S1130D2082B95C9A82E0809384070BC0E0918B07C0
S1130D30F0E0EE5FFE4F808182B95C9881E08093A1
S1130D40840724DC04E819E00F2EFAE0FF2EF02DCE
S1130D50F801F082C5E8D9E084E1888361E08FE698
S1130D6091E0FCDCF801F0820F2EF8E2FF2EF02D6A
S1130D70F88261E088E791E0F1DC81E4F8018083A6
S1130D80F8828091840761E0805D3CDCF9DC53C02B
S1130D90FDDB0F2EF4E8EF2EF9E0FF2EF02D85E0B9
S1130DA0F7018083C5E8D9E01AE0188361E08FE792
S1130DB091E0D4DCF701108314E1188361E08091A1
S1130DC0010120DCF7011083188361E080910001A8
S1130DD019DCD6DC30C0DADB85E0809384098AE054
S1130DE08093850961E08DE891E0B8DCC9DC23C01B
S1130DF08091C00088230CF06CCE5FCE43DB8093DF
S1130E00E709813409F0F0CDEBCD9091E1098091AF
S1130E1001019813A2CE9BCE5C982111DFCDC8CDE1
S1130E208091C00088230CF40CCE17CE80918507E6
S1130E30811153CF6BCFDF91CF911F910F91FF9011
S1130E40EF90DF9008951092E00902DD83E090E0D6
S1130E5031D4FBCFAF92BF92CF92DF92EF92FF9249
S1130E600F93A12CB12CC12CD12CE12CF12C082FE7
S1130E7020E030E045E550E067E971E083E297E087
S1130E80AED10F91FF90EF90DF90CF90BF90AF90D5
S1130E9008958FEF81B912B884B915B880EF87B976
S1130EA08FE088B982EF8AB98DE08BB939DB80E2B3
S1130EB0E6DA80E07CDC81E0CDDF85D280E090E082
S1130EC0089531E1FC013083319722E22083319788
S1130ED0A3E3A083319760833197708331971082A5
S1130EE0319760E8608331971082319762E06083C4
S1130EF0319763E06083319764E06083319765E004
S1130F006083319766E06083319767E0608331974F
S1130F1068E06083319769E06083319760E16083C2
S1130F2031973083319732E13083319733E1308325
S1130F30319734E13083319735E13083319736E1AD
S1130F403083319737E13083319738E130833197FB
S1130F5039E13083319730E23083319731E23083A5
S1130F6031972083319723E220833197408331974F
S1130F705083319726E22083319727E220833197EB
S1130F8028E22083319729E22083319720E32083CC
S1130F90319721E3208386970895109289008CE786
S1130FA0809388008BE080938100EFE6F0E08081FD
S1130FB082608083A091DE09B091DF09CD91CDBF1D
S1130FC0DD91DEBFFF91EF91DF91CF91BF91AF91A2
S1130FD09F918F917F916F915F914F913F912F914D
S1130FE01F910F91FF90EF90DF90CF90BF90AF9043
S1130FF09F908F907F906F905F904F903F902F9035
S11310001F900F900FBE0F90089581E008950F92E6
S11310100FB6F8940F921F9211242F923F924F9281
S11310205F926F927F928F929F92AF92BF92CF9274
S1131030DF92EF92FF920F931F932F933F934F935F
S11310405F936F937F938F939F93AF93BF93CF934C
S1131050DF93EF93FF93A091DE09B091DF090DB602
S11310600D920EB60D927BD3A091DE09B091DF09EB
S1131070CD91CDBFDD91DEBFFF91EF91DF91CF9197
S1131080BF91AF919F918F917F916F915F914F919C
S11310903F912F911F910F91FF90EF90DF90CF9090
S11310A0BF90AF909F908F907F906F905F904F9084
S11310B03F902F901F900F900FBE0F9008950F92A6
S11310C00FB6F8940F921F9211242F923F924F92D1
S11310D05F926F927F928F929F92AF92BF92CF92C4
S11310E0DF92EF92FF920F931F932F933F934F93AF
S11310F05F936F937F938F939F93AF93BF93CF939C
S1131100DF93EF93FF93A091DE09B091DF090DB651
S11311100D920EB60D9286D122D3A091DE09B09124
S1131120DF09CD91CDBFDD91DEBFFF91EF91DF915E
S1131130CF91BF91AF919F918F917F916F915F916B
S11311404F913F912F911F910F91FF90EF90DF905E
S1131150CF90BF90AF909F908F907F906F905F9053
S11311604F903F902F901F900F900FBE0F900895B7
S1131170A6DF1895CF93DF93EC01E091DE09F0919F
S1131180DF099383828380918E0990918F09C81718
S1131190D90760F46091DE097091DF098091A40998
S11311A09091A5096E5F7F4FEBD816C06091DE0960
S11311B07091DF098091A6099091A7096E5F7F4F16
S11311C0DFD880910A0190910B01C817D90720F448
S11311D0D0930B01C0930A01DF91CF9108954F92F0
S11311E05F926F927F928F929F92AF92BF92CF92B3
S11311F0DF92EF92FF920F931F93CF93DF935C01E3
S11312004B013A01290181E290E05AD8EC01892B83
S113121009F4C7C0C114D10409F0BFC0C30150D838
S1131220988F8F8B009719F4CE0170D8BAC0A301A0
S113123065EA70E015D39301215031098F89988DA7
S11312403C01620E731E48E050E0B401CE014996A1
S11312500ED318A2102F043008F013E01E8B6E0179
S113126082E0C80ED11CC60160D8CE010C965DD8B0
S1131270D987C88784E090E0811B91099D878C877A
S1131280DB8BCA8BA201B501C3011BDE9983888362
S1131290E114F10419F0F701D183C0830FB6F89477
S11312A00F92809190098F5F809390098091DE095D
S11312B09091DF09892B69F5D093DF09C093DE098A
S11312C0809190098130A1F58AEB99E020D883ECD4
S11312D099E01DD88CEC99E01AD885ED99E017D8DF
S11312E081EB99E014D888EA99E011D88BE999E068
S11312F00ED882E999E00BD881EB99E09093A70985
S11313008093A60988EA99E09093A5098093A4099B
S11313100FC080918B0981110BC0E091DE09F0911F
S1131320DF098689081720F0D093DF09C093DE090E
S11313308E8990918D09981710F480938D0990915E
S113134086099F5F9093860990918C09981710F4F1
S113135080938C0990E09C01220F331F220F331FCE
S1131360220F331F820F931FB6018654964F0E949B
S113137099010F900FBE80918B09882351F0E09161
S1131380DE09F091DF098689801728F440DE81E0C8
S113139009C081E007C081E005C0D88ECF8AC601AC
S11313A046CF8FEFDF91CF911F910F91FF90EF9078
S11313B0DF90CF90BF90AF909F908F907F906F9071
S11313C05F904F900895AF92BF92CF92DF92EF92C9
S11313D0FF920F93A12CB12CC12CD12CE12CF12C18
S11313E000E020E030E045E550E061EA71E086E7A6
S11313F09BE0F5DE813041F4F89480938B091092E0
S11314008F0910928E09C9DD0F91FF90EF90DF9044
S1131410CF90BF90AF90089580918A098F5F809399
S11314208A0908950F931F93CF93DF9380918A09BC
S11314308111B2C080918E0990918F090196909389
S11314408F0980938E0980918E0990918F09892B41
S113145099F58091A6099091A7092091A40930914A
S1131460A5093093A7092093A6099093A509809311
S1131470A409809187098F5F80938709E091A60969
S1131480F091A7098081811107C08FEF9FEF90939E
S11314900B0180930A0110C0E091A609F091A709FD
S11314A00580F681E02D0680F781E02D828193810D
S11314B090930B0180930A0120918E0930918F093A
S11314C080910A0190910B012817390708F469C02B
S11314D0E091A609F091A7098081882399F0E09111
S11314E0A609F091A7090580F681E02DC681D78170
S11314F08A819B8120918E0930918F0928173907A1
S1131500F8F419C08FEF9FEF90930B0180930A01B9
S113151048C0E091A609F091A7090580F681E02D65
S1131520C681D7818A819B8120918E0930918F0950
S11315302817390728F490930B0180930A0131C0CE
S11315408E010E5F1F4FC8010E94FB018C899D898B
S1131550892B21F0CE010C960E94FB018E8990917B
S11315608C09981710F480938C0990E09C01220F49
S1131570331F220F331F220F331F820F931FB80113
S11315808654964F0E949901E091A609F091A7090B
S113159080818111BECFB6CF809189098F5F8093FE
S11315A08909DF91CF911F910F910895CF92DF9216
S11315B0EF92FF920F931F93CF93DF930FB6F8949C
S11315C00F9280918A09815080938A0980918A09B7
S11315D0811162C080919009811132C060C0D7012D
S11315E01596ED91FC911697C681D781CE010C9684
S11315F00E94FB018E010E5F1F4FC8010E94FB0178
S11316008E8990918C09981710F480938C0990E03E
S11316109C01220F331F220F331F220F331F820F0F
S1131620931FB8018654964F0E949901E091DE09F8
S1131630F091DF099E898689981758F0DC2C09C03F
S1131640D12C0F2EFBE9EF2EF9E0FF2EF02DCC2448
S1131650C394F70180818111C2CF809189098823C5
S113166079F080918909882391F0DCDE80918909E1
S1131670815080938909809189098111F6CF07C02F
S1131680F1E0DF1621F080918809813039F410925D
S11316908809BDDC81E003C080E001C080E00F90D8
S11316A00FBEDF91CF911F910F91FF90EF90DF90CC
S11316B0CF900895CF93DF93EC01892B99F0ACDEA2
S11316C080918E0990918F09C80FD91F8091DE09EE
S11316D09091DF0902960E94FB01CE014BDD66DF8B
S11316E0811101C094DCDF91CF9108950F2EF2E9AE
S11316F0EF2EF9E0FF2EF02DCAEBD9E0809191098D
S1131700882341F189DED7011C9150DF112311F1A7
S11317100FB6F8940F92D7011596ED91FC91169798
S113172006811781C80102960E94FB0180919009ED
S113173081508093900980919109815080939109FF
S11317400F900FBEF8018789908D0E948601C80111
S11317500E9486018881823088F259DCCFCF809143
S11317608A09811113C080918C0990E0FC01EE0F6D
S1131770FF1FEE0FFF1FEE0FFF1F8E0F9F1FFC01B9
S1131780E654F64F8081882329F01BC081E08093C2
S11317908809089580918C09815080938C098091E7
S11317A08C0990E0FC01EE0FFF1FEE0FFF1FEE0F00
S11317B0FF1F8E0F9F1FFC01E654F64F8081882384
S11317C049F380918C0990E09C01220F331F220F72
S11317D0331F220F331F280F391FD901A654B64FC8
S11317E01196ED91FC9112970280F381E02D1296EF
S11317F0FC93EE9311972354364FE217F30729F421
S113180022813381FD0132832183FC01EE0FFF1F0E
S1131810EE0FFF1FEE0FFF1F8E0F9F1FFC01E654FC
S1131820F64F0180F281E02D868197819093DF0944
S11318308093DE090895991B79E004C0991F9617D7
S113184008F0961B881F7A95C9F780950895EE0FC6
S1131850FF1F0024001C0BBE0790F691E02D099495
S1131860DC0101C06D9341505040E0F70895FB0145
S1131870DC014150504048F001900D920020C9F71E
S113188001C01D9241505040E0F70895F894FFCFF5
S1131890323101030206040C0809FFFF4E6F004DAC
S11318A06F74696F6E00412D656E74657220636F8D
S11318B0646500422D6368616E676520636F6465CB
S11318C000432D636865636B20636F646500456E38
S11318D07472793A200050415353434F44453F00BA
S11318E057524F4E472050415353574F5244005282
S11318F045535441525420424F41524400554E4C9A
S11319004F434B494E472100526F6F6D3A200043BD
S1131910757272656E7420436F64653A004E657724
S113192020436F64653A004D6F746F725461736B3A
S10919300049444C45008F
S9030000FC
